:020000040000FA
:10000000E811002065010000690100006B0100009B
:1000100000000000000000000000000000000000E0
:100020000000000000000000000000006D01000062
:1000300000000000000000006F01000071010000DE
:1000400073010000730100007301000073010000E0
:1000500073010000730100007301000073010000D0
:1000600073010000730100007301000073010000C0
:1000700073010000730100007301000073010000B0
:1000800073010000730100007301000073010000A0
:100090008919000073010000730100007301000062
:1000A0007301000073010000730100007301000080
:1000B0007301000073010000710E00007301000065
:1000C00000F002F800F03EF80CA030C80838241800
:1000D0002D18A246671EAB4654465D46AC4201D180
:1000E00000F030F87E460F3E0FCCB6460126334274
:1000F00000D0FB1AA246AB463343184780310000BC
:10010000A0310000103A02D378C878C1FAD852075B
:1001100001D330C830C101D504680C6070470000BD
:100120000023002400250026103A01D378C1FBD813
:10013000520700D330C100D50B6070471FB51FBDFB
:1001400010B510BD00F08EFA1146FFF7F7FF02F070
:10015000E5FD00F0A6FA03B4FFF7F2FF03BC00F0E0
:10016000DBFA000006480047FEE7FEE7FEE7FEE791
:10017000FEE7FEE703480449044A054B70470000C8
:10018000C1000000E8010020E8110020E80900207B
:10019000E8090020002203098B422CD3030A8B427A
:1001A00011D300239C464EE003460B433CD400226F
:1001B00043088B4231D303098B421CD3030A8B4281
:1001C00001D394463FE0C3098B4201D3CB01C01A4F
:1001D000524183098B4201D38B01C01A524143091A
:1001E0008B4201D34B01C01A524103098B4201D308
:1001F0000B01C01A5241C3088B4201D3CB00C01A75
:10020000524183088B4201D38B00C01A52414308EC
:100210008B4201D34B00C01A5241411A00D2014611
:100220005241104670475DE0CA0F00D049420310AA
:1002300000D34042534000229C4603098B422DD3F9
:10024000030A8B4212D3FC22890112BA030A8B42A1
:100250000CD3890192118B4208D3890192118B42F0
:1002600004D389013AD0921100E08909C3098B4275
:1002700001D3CB01C01A524183098B4201D38B01B8
:10028000C01A524143098B4201D34B01C01A52415B
:1002900003098B4201D30B01C01A5241C3088B42A0
:1002A00001D3CB00C01A524183088B4201D38B008B
:1002B000C01A5241D9D243088B4201D34B00C01A15
:1002C0005241411A00D20146634652415B1010462A
:1002D00001D34042002B00D54942704763465B1072
:1002E00000D3404201B50020C046C04602BD704761
:1002F000704770471F22030C02D10F22000402D066
:10030000030E03D004E00020014670470002083AC3
:10031000030F01D10001121F830F01D18000921E33
:10032000002801DB4000521E120551184205C01280
:10033000411810467047C10FC90700D04042012242
:1003400092071143D6E701218907D3E70121C905A7
:100350000123411842001B06D3185B0E0AD0C110BE
:100360000722D206891840075242D14201D55200D5
:1003700089187047090208D50146002A03D0C10F29
:10038000C9070020704710467047420202D0002083
:1003900002497047072109050143F4E70000F87F8F
:1003A000F0B5FF252D04C609C209FF2704462E40DB
:1003B0000137CB093E4348402A402B400746002ADC
:1003C0006BD0002B69D0AA4267D0AB4265D0002821
:1003D00000DA32460125ED0529432C4309022002AB
:1003E000090AD21A4B0C7F24E31A434C000A7C44BE
:1003F000E35C7D242404121914145B00A2188842C3
:1004000001D3521C00E0400049420C465C432411D9
:100410005C43DB016415E318040A5C43C502200D4C
:100420000C4644436419250A5D432303EC0C0D4636
:10043000654300030019EB184C42A34201D35B183B
:10044000401CD4052018002B07D05B00C91804D32A
:10045000401C002901D1400840003F2189048A4204
:1004600009D3002A08DC1106090F04D0032149072B
:100470004018C00FC007F0BD0122410012068918C4
:100480007F2252069142F6D205214907C84201D582
:100490009010F0BDFF20C005F0BD002F00DA3246FD
:1004A0001648AA4207D2AB4205D21902090E17D04C
:1004B000F80FC007F0BDFF2563002D06AB42F9D849
:1004C0004900A942F6D8AB4201D1A942F2D0A942D3
:1004D00001D1002101E061004908D0050843F0BDC9
:1004E0001102090EFBD0FF200243D005F0BD0A46E1
:1004F0000146104654E700004A2E00000000C07F6D
:100500000102C21504D00123DB071943002A0ADBCC
:100510009E239A1A02D40846D0407047FF22410019
:100520001206914201D900207047C017C04370479E
:100530001F22030C02D10F2200041CD0030E01D194
:100540000002083A030F01D10001121F830F01D1ED
:100550008000921E002801DB4000521ED205511877
:10056000021251181922904004D3491C002801D1CD
:100570004908490008467047C10FC90700D04042EA
:10058000012292071143D3E701218907D0E7000038
:10059000F8B5224C4E00069DA6420AD8A64201D1CB
:1005A000002806D15E00A64203D8A6420AD1002A3E
:1005B00008D00D24240425422CD02946002000F028
:1005C0002FF8F8BD0C461C430CD4994202D0EFF32F
:1005D0000080F8BD904202D0EFF30080F8BDEFF349
:1005E0000080F8BD09242407E5008B4206D0EFF314
:1005F0000080A043591A06D2284304E0101A05D3FC
:10060000EFF30080A04380F30088F8BDEFF3008093
:10061000A043F1E7009500F01BF8F8BD0000E0FFF3
:10062000C80212D54803400F002804D0C803C043B5
:10063000012188407047EFF3008000010009032189
:100640000907084380F300887047002070470000C6
:1006500010B500200249029A00F02BF810BD0000EE
:100660000000F87F754600F053F8AE460500694675
:100670005346C008C000854618B020B5FFF77AFD84
:1006800060BC00274908B6460026C0C5C0C5C0C525
:10069000C0C5C0C5C0C5C0C5C0C5403D49008D4628
:1006A000704710B50446C046C0462046FFF753FDCC
:1006B00010BD10B50C461107090F092904D00A29ED
:1006C0000AD008290CD104E011460820FFF7A8FF42
:1006D00006E0510606D501E0510601D50120C0070C
:1006E000214610BDD10607D501010909CC084907EB
:1006F000000E0006044309E0410F20024907000AEA
:100700000143200E00061D22D14101430846E7E7C0
:10071000004870478401002001491820ABBEFEE765
:10072000260002007047000078480079002806D0B3
:1007300001283CD002287DD0032837D1D7E0744867
:10074000006901210843724908617248806B0521E4
:10075000090208436F4988636F48C069E0218843F4
:100760006D49C8610846C069202108436A49C861CB
:100770000846006A69490840674908620846006AF5
:10078000B1210904084364490862002064490862F1
:100790000846006A01210843614908620020614956
:1007A000C8605A480079401C58490871ACE05D485F
:1007B000C068092858D9584800690121084356499A
:1007C00008610846C06A0121090408435249C86209
:1007D000514840300068FF21F13188434E49403193
:1007E0000860084600681F21490288434A49403191
:1007F00008600846006849140843474940310860CA
:1008000045480069012109040843434908614248F9
:1008100040304068FF21F13188433F494031486012
:10082000084640681F21490288433B4940314860DF
:10083000084600E019E040681121490208433649A2
:100840004031486034480069012149040843324975
:10085000086108464069032108432F4948612B4835
:100860000079401C294908714EE003202A49096893
:100870000140814201D1012100E00021002935D051
:10088000254880300068214908802348803040682E
:1008900048802148C06A400B40031F49C8621B4979
:1008A00009881A4A528889181F4A881AC10F0918DC
:1008B0004910194AD26A1143174AD1621046C06AD8
:1008C0000121090488431146C862084600694008AE
:1008D0004000086108460069032109048843114665
:1008E00008610A480079401C084908710CE00F2093
:1008F000000300780D49087701200D490870002099
:1009000002490871887100BF00BF7047A80000202D
:100910004020004000240040005C0140FFFF00FE3A
:100920000058014020000020FF0F00006C00002054
:10093000020000200B480069400840000949086196
:100940000948806B89158843074988630748084927
:10095000C861052000020862012005494031086194
:10096000704700004020004000240040200130007B
:10097000005C0140124800690121084310490861E8
:100980001048806B891508430E4988630E48C0697A
:10099000E02188430C49C8610846C069202108430A
:1009A0000949C861002008620846006A07490843EF
:1009B0000549086201200449403108617047000080
:1009C0004020004000240040005C0140040F8D00E6
:1009D00070B50246FF20521C002315E015786840D0
:1009E00000240CE080250540002D04D04500312670
:1009F0007540E8B201E04506280E651CECB2082CF3
:100A0000F0DB521C5D1CEBB28B42E7DB70BD0000DB
:100A10000949096901221204114000290BD0002064
:100A200000BF8100054A5158491C8200034B995070
:100A3000401C0F28F5D3704700E000E020000020A4
:100A400010B500BFEFF308821146CA04510D002013
:100A500000BF00228300012464071B191A60401C98
:100A60008842F6D310BD00001248C06812490843FE
:100A70001049C860002008601048C06801210905BD
:100A800088430E49C8600D484038C06B89058843CB
:100A90000A494039C8630A48C0680F21890588435C
:100AA0000749C8600846C06805218905084304490C
:100AB000C8607047001C01407F3F00004024004098
:100AC000000C004000201349C860086148610860BC
:100AD00088611148406B400840000F4948630E4848
:100AE00040304068C91488430B494031486008468B
:100AF000C0680221884308494031C860142000289A
:100B000005DBC206D20E01219140044A116000BFEC
:100B100070470000008801400024004080E100E0B0
:100B200000200D4908604860C86288624861086218
:100B30004863086308610849403148600748006815
:100B400010218843054908600846C0680914884395
:100B50000249C86070470000008001404024004006
:100B60000C484068800880000A49486009484038BD
:100B7000C06B8915884307494039C8630548C06878
:100B8000102188430349C860002003490862886136
:100B900008607047402400400020014070B5A8481C
:100BA0004078030002F0ACF808050E24478ED4F11B
:100BB000EF0D0020A3494862A1484078401CA0499D
:100BC00048703AE19F48406A9F4988420FD99F4840
:100BD000407800280BD101209C49203988720121DE
:100BE0009A48417096484078401C9549487024E1E5
:100BF0009648407800281DD195490868FFF7A6FB64
:100C00000446944A944B02F085F910D201208F4992
:100C10002039887401218D48417089484078401CF2
:100C20008749487008468078401C887002E00020A0
:100C30008349487001E185484078002841D18348C4
:100C40002038018A7E4880784200844881527C485E
:100C500080780A2806DA00207A4948620720784915
:100C600048702EE07648C078002812D17B4800F00A
:100C70001BF97A49091F0883002008770120784969
:100C80008873022088706E484078401C6C49487018
:100C900011E0724800F008F97049091F48830F20DD
:100CA00000038088088300206D4988736448407879
:100CB000801C6349487000206149887001206849A0
:100CC0000870BAE066480078002840D10F20000381
:100CD00080886249091F08835C492039098A5F4A74
:100CE000121F128B881A002801DB014600E04142E6
:100CF00005291FDC01205949091F087088705948CF
:100D000080690121C9020843564988610846806903
:100D10000915084353498861084680694915084305
:100D20005049886164204A49888000200874012065
:100D3000487408E000204949091F087002208870A3
:100D400001204949087000203D494870087074E04E
:100D500043480078002815D14049091F4863032102
:100D60003E481C30017601203C49091F08773C4968
:100D70008873052088700120087031484078401C35
:100D80002F49487059E04FE0FFE7354800780028C8
:100D900049D1324A121F528B0F231B039B68D11A71
:100DA000002901DB0A4600E04A42052A2EDC2B4AD4
:100DB000121F128B0F231B035B68D01A002801DB64
:100DC000024600E04242052A20DC01202349091F97
:100DD000487003208870234880690121C9020843B4
:100DE0002049886108468069091508431D498861C2
:100DF00008468069491508431A49886164201449E6
:100E00008880002008740120487408E000201349FD
:100E1000091F4870022088700120134908700020C3
:100E200007494870087008E00648406A0F49884240
:100E300002D902200249487000BF00BF70BD000007
:100E4000050000202000002087130000C8000020BB
:100E5000F40000209A999999999905407000002012
:100E600038010020400C00401C000020E703000077
:100E700010B508200A4949690140814201D1012188
:100E800000E0002100290AD008200549486100BF80
:100E900001F034FDFFF716FE01200249487010BD35
:100EA000C00D00400200002030B501460B880C88C0
:100EB0000022002011E045004D5B9D4201DD450010
:100EC0004B5B45004D5BA54201DA45004C5B45009C
:100ED0004D5BAD18AAB2451CE8B20A28EBDB181925
:100EE000101A82B21046D5176D0F2D18EA10104651
:100EF00030BD00000C480068012108430A49086021
:100F000008464068012108430749486007480068CF
:100F100080088000054908600846006804490843C5
:100F20000249086030BF70470028004000200040A0
:100F300002020000C0202A4908608020C043886067
:100F4000082008612748006801214906084325490F
:100F5000086024484030C0684905084321494031B1
:100F6000C86008464068090608431E494031486089
:100F70001B480068C02108431949086008460069F9
:100F80000821084316490861084680688021C94342
:100F900008431349886008464069082108431049FE
:100FA00048610120800710490860104908600F4817
:100FB0008038032109024018C069FF2109048843D1
:100FC0000121C905401809498039032212028918F4
:100FD000C86101208007054980390860704700001A
:100FE000C00D00400024004080E200E080E100E00D
:100FF00070B5F748007C030001F082FE0A06148EEB
:10100000E3F8F7F6F5F4F31300F084FD0020F1495E
:1010100048628862C8620863ED48007C401CEC4965
:101020000874C3E2EA488088EB49884201DD08463B
:1010300001E0E7488088E649888088886421FFF7D6
:10104000B3F8E349C881E348406AC9898900E34AA3
:10105000515C09010843DF4948620846806ADC495F
:10106000C98989008918497809010843D9498862E2
:101070000846C06AD649C989890089188978090152
:101080000843D449C8620846006BD149C989890020
:101090008918C97809010843CE490863CC49888872
:1010A0000A21FFF781F884B20A212046FFF77CF875
:1010B00088B2C749C881C748406AC9898900C74AF8
:1010C000515C89000843C34948620846806AC049A8
:1010D000C98989008918497889000843BD4988620F
:1010E0000846C06ABA49C98989008918897889007F
:1010F0000843B849C8620846006BB549C9898900E8
:101100008918C97889000843B2490863B048007C4F
:10111000401CAF49087449E2AD4988880A21FFF7AD
:1011200043F888B2AA49C881AA48406AC989890097
:10113000AA4A515C0843A74948620846806AA44904
:10114000C9898900891849780843A24988620846F4
:10115000C06A9F49C98989008918897808439D49CF
:10116000C8620846006B9A49C98989008918C978FC
:101170000843984908630846406A11464031097A95
:101180000843944948620846806A114648314978C4
:101190000843904988620846C06A114648318978F8
:1011A00008438C49C8620846006B11464831C9782B
:1011B0000843884908638648007C401C84490874B9
:1011C000F4E183490868FFF7C1F80446844A854B77
:1011D00001F0D2FE0BD87E48007C401C7C4908748C
:1011E0002BE034E1C6E09EE076E04EE026E0784970
:1011F0000868FFF7ABF804467B4A7C4B01F0BCFE65
:1012000005D87348007C801C7149087415E070494A
:101210000868FFF79BF80446734A5242744B01F08A
:10122000ABFE05D86A48007CC01C6949087404E01C
:101230006748007C001D66490874B7E16548406A4C
:1012400066492031097D090708436249486208461A
:10125000806A62493431497808435E4988620846A9
:10126000C06A5E493431897808435A49C8620846E1
:10127000006B5A493431C9780843564908635448C9
:10128000007C401C5249087490E15248406A53491E
:101290002031097E08434F4948620846806A4F4919
:1012A0003831497808434B4988620846C06A4B493F
:1012B00038318978090708434649C8620846006BF7
:1012C00046493831C9780843424908634048007CA0
:1012D000401C3F49087469E13E48406A3F4920315B
:1012E000097F08433B4948620846806A3B493C31D4
:1012F00049780843374988620846C06A37493C3113
:10130000897808433349C8620846006B33493C3149
:10131000C978090708432F4908632D48007C401C01
:101320002B49087442E12B48406A2C494031097826
:101330000843284948620846806A2849403149786C
:1013400009070843234988620846C06A2349403197
:10135000897808431F49C8620846006B1F4940311D
:10136000C97808431B4908631948007C401C184988
:1013700008741BE11648807C00283BD11448408942
:101380001349C8810846408988811248406A134938
:1013900040310979090708430E4948620846806AC6
:1013A0000E494431497808430A4988620846C06AB0
:1013B0000A494431897808430649C8620846006BE7
:1013C00006494431C97808430249086339E00000FE
:1013D000F4000020000C0140E7030000EC310000A5
:1013E0006666666666660640CDCCCCCCCCCC044046
:1013F000333303406E4800896D49C881084600892F
:1014000088816C48406A6C49097B0907084369492F
:1014100048620846806A68490C3149780843654942
:1014200088620846C06A64490C318978084361497A
:10143000C8620846006B60490C31C97808435D49B1
:1014400008635B48007C401C59490874AEE0584969
:101450008989574AD289881AFEF76DFF044600220F
:10146000564B01F089FD03D85148C089401C01E06A
:101470004F48C0894E49888188890A21FEF794FE29
:1014800084B20A212046FEF78FFE88B24849C881FF
:101490000846C089800048494039085C022108405C
:1014A00080074349C9898900434A403A515C891001
:1014B00040184049496A08433E4948623C48C0894F
:1014C00080001146401840780221084080073849C2
:1014D000C989890089184978891040183549896A6D
:1014E0000843344988623248C08980001146401858
:1014F00080780221084080072D49C9898900891810
:101500008978891040182B49C96A08432949C8625B
:101510002748C089800011464018C0780221084041
:1015200080072349C98989008918C978891040181A
:101530002049096B08431F4908631D4988890A210E
:10154000FEF732FE88B21A49C8811A48406AC98932
:101550008900194A403A515C090708431549486215
:101560000846806A1249C98989008918497809079B
:101570000843104988620846C06A0D49C989890034
:1015800089188978090708430A49C8620846006B28
:101590000749C98989008918C97809070843054995
:1015A0000863002002494874087400BF00BF70BD82
:1015B000F4000020000C01402C3200000000E03F4D
:1015C00000B552484078002806D001281CD00228D7
:1015D0004DD0032817D192E000F09CFA00204C492E
:1015E00048628862C862086348480078012805D1CB
:1015F00046484078801C4549487004E0434840789C
:10160000401C424948707FE0002028E04149097CA5
:10161000420091403E4A526A11433D4A51623D495F
:101620001031497842009140394A926A1143384A50
:10163000916238491031897842009140344AD26A27
:101640001143334AD16233491031C9784200914085
:101650002F4A126B11432E4A1163411CC8B2032852
:10166000D4DB2A484078801C284948704CE0284840
:10167000406A2849097A8900084325494862084692
:10168000806A2449083149788900084320498862E2
:101690000846C06A1F4908318978890008431C49F7
:1016A000C8620846006B1B490831C97889000843A5
:1016B000174908630846406A1649097B08431449DC
:1016C00048620846806A13490C314978084310493A
:1016D00088620846C06A0F490C31897808430C4972
:1016E000C8620846006B0B490C31C97808430849A9
:1016F000086306484078401C0449487004E0002014
:1017000002498870487000BF00BF00BD0B00002078
:10171000000C01400C32000097484078002804D0AB
:1017200001287DD002287CD11BE1944880780028D4
:1017300019D10F2000030068401C002813D19048E5
:1017400040690121C90208438D4948610846806902
:10175000491508438A4988610846406909150843C4
:101760008749486166E085488078002818D10F20B5
:1017700000030068002813D1814840690121490213
:1017800008437F49486108464069091508437C4978
:10179000486108468069C91408437949886149E06D
:1017A00076488078012813D1754840690121C90223
:1017B0000843734948610846406949150843704920
:1017C000486108468069091508436D49886131E020
:1017D0006A488078022813D169484069012189024A
:1017E00008436749486108468069C9140843644949
:1017F000886108468069491508436149886119E094
:101800005E488078032815D15D484069012149026E
:1018100008435B494861084640690915084301E0EF
:1018200011E0A6E05649486108468069C91408439A
:10183000534988610020534988624F484078401CD2
:101840004D49487095E04F48806A63287ED94B48DF
:101850008078002819D10F2000030068401C002860
:1018600013D1474840690121C902084344494861EE
:1018700008468069491508434149886108468069DE
:10188000091508433E49886165E03C488078002896
:1018900018D10F2000030068002813D13848406990
:1018A0000121490208433649486108468069091503
:1018B00008433349886108468069C91408433049A0
:1018C000886148E02D488078012813D12C48406970
:1018D0000121C90208432A4948610846806949151F
:1018E0000843274988610846406909150843244987
:1018F000486130E021488078022813D120484069AF
:101900000121890208431E49486108468069C914BB
:1019100008431B49886108468069491508431849EE
:10192000886118E015488078032814D1144840696C
:101930000121490208431249486108468069091596
:1019400008430F4988610846406900E008E0C9146F
:1019500008430B49486108484078401C06494870D4
:1019600007E00848806AC72802D900200249487069
:1019700000BF00BF704700001C0000206C0000206A
:10198000400C00402000002010B500BF1548406901
:10199000402108408009002823D000BF4020114981
:1019A000486100BF00F0AAFFFFF78CF80E4880786E
:1019B000401C0D49887008460079401C0871084693
:1019C0008079401C88710846C079401CC87108465F
:1019D0000089401C08810846807A401C88720120DA
:1019E000487010BD00880140600000201C488078CD
:1019F000042813DD1B4840690121490208431949A5
:101A0000486101201849887000201549887001201C
:101A1000164988740121154820304170104800791A
:101A2000072809DD01201149887201210F48203063
:101A3000417000200A4908710948407801280ED1F8
:101A40000748007800280AD006484069FF21013184
:101A500008430449486100200149087048707047F4
:101A600060000020400C00400E000020A800002074
:101A70002148C069042188431F49C8611F48C06BC1
:101A80000121090708431D49C8631C4840304068CC
:101A90000321090488431949403148600846C06859
:101AA00001210905084315494031C860144815490A
:101AB000086115484861012008600020486088607E
:101AC0000846C068114908430E49C8601048C068FC
:101AD0000F21890588430E49C8600846C068052162
:101AE000C90508430A49C8600846006A0F218905EC
:101AF00088430749086270470028004000240040DE
:101B0000C800C800001C0140640008007F3F0000BE
:101B1000000C00400F48C0690121890788430D4926
:101B2000C8610D48406B0121490608430A494863D2
:101B30000A480B4908604020886057204002C8606E
:101B4000002048610F20064940310861054848617E
:101B5000704700000028004000240040398F000238
:101B6000000C01407F0000F02448406B0121084335
:101B700022494863214840304068C91408431F493E
:101B8000403148600846C068022108431B49403183
:101B9000C8601B480068032189020843184908608F
:101BA00005204003C86008460069402108431449E5
:101BB00008610846406940210843114948610120F5
:101BC0000005104908600F488038032109024018B9
:101BD0004069000A000240300A498039032212029B
:101BE00089184861012000050649803908600448C9
:101BF0008069012108430249886170470024004040
:101C00000088014080E100E0264800681021084378
:101C1000244908600846C068091408432149C8607F
:101C200021482249C86208460068802108431F49AC
:101C300008600846806A88620846406901210843B6
:101C40001A494861002008620846406803210902D9
:101C500008431649486008468069602108431349D3
:101C600088610846006A0521084310490862FF2080
:101C70001C30486308460069012108430B4908618C
:101C800000200863084600680121084307490860EE
:101C90000648403040680121C903084303494031E8
:101CA0004860704740240040350200000080014039
:101CB0001348406880088000114948601048403847
:101CC000C06B891508430E494039C8630C48C06889
:101CD000102108430A49C8600A48006A0949086295
:101CE000CF20886108460068F021884305490860D4
:101CF0000846006843210843024908607047000015
:101D0000402400400020014010B5E748007803005F
:101D100000F0F6FF09062941AEE4FDFCFBFA2800BD
:101D2000E1482038807A012808D1DF482038807CBB
:101D3000012803D10220DC4920398874DA48203890
:101D4000807A002808D1D8482038807C022803D126
:101D50000120D54920398874D3480078401CC1B28D
:101D6000D14801709EE1FEF705FECF482038807A09
:101D7000012806D1CD484069FF2101310843CB49F4
:101D800048610020CA49C860C7480078401CC1B2F9
:101D9000C548017086E1C648C068092867D9C548AA
:101DA000006901210843C3490861C348C06B102181
:101DB0000843C149C863BC482038807A012810D143
:101DC00021200002BB4948630846006810210843EF
:101DD000B849086008460069012109050843B5496A
:101DE0000861B1482038807C012817D10520C00245
:101DF000B04948630846006810210843AD490860AF
:101E0000084600693F2109048843AA490861084639
:101E10000069012109050843A6490861A248203844
:101E2000807E012817D109208002A2494863084614
:101E30000068102108439F490860084600693F2157
:101E4000090488439B490861084600690121090586
:101E5000084398490861974840691021084395490B
:101E6000486191480078401CC1B28F48017019E167
:101E700090480068C006C00F00282ED08A4820383D
:101E8000807A012813D18B488030006940008B494B
:101E9000884201D9084602E08348203800898249F7
:101EA000203908810889FEF76FFB854908607E4864
:101EB0002038807C012804D07B482038807E01288F
:101EC00005D17C488030006977492039888176487F
:101ED0000078401CC1B274480170E3E075480068A6
:101EE000C006C00F00282FD07248803000696E49AC
:101EF0002039C8830846807A012815D1C88BFEF79F
:101F000043FB04466E4903E0B1E07DE05BE01CE08A
:101F100008682146FEF744FA69490860624800787B
:101F2000801CC1B2604801705F482038807C012865
:101F300004D05D482038807E012805D15A480078B9
:101F4000401CC1B258480170ACE05A480068C00655
:101F5000C00F002836D057488030006981B25248FF
:101F60002038C18101468A89C9895018C10F0918D2
:101F7000C9030A0C4C4920390A820F20000300686B
:101F8000012802D100204E49888047480078401C33
:101F9000C1B2454801702038008A7D21490188423C
:101FA00010DB41482038807C01280BD100203E49BD
:101FB000203988740120887600203D49C8600221BC
:101FC000394801706EE03B48006A002039490862D8
:101FD0000846006901210905884336490861012046
:101FE00048633548C06B102188433349C863314882
:101FF0000069400840002F4908612B480078401CC8
:10200000C1B2294801704DE0FEF794FC2648203803
:10201000807A01280BD125488069FF2101310843CE
:1020200022498861002020492039887218E01E4822
:102030002038807C012807D100201B492039887472
:1020400001201F4948740BE017482038807E012882
:1020500006D1002014492039887601201849487497
:1020600011480078401CC1B20F4801701AE00E48B8
:102070002038807C002811D10B482038807A002835
:102080000CD109482038807E002807D101200C4956
:102090004874002104480170417002E000210248A8
:1020A000017000BF00BF10BDC8000020800C0040C0
:1020B00020000020005C014000200040FF0F0000D5
:1020C000F4000020F8B5FA484078030000F018FE4C
:1020D000110A1C313E717B90B7C1CDE2FDFCFBFAC9
:1020E000F9F81B00FFF7C4FCF2484069012189029E
:1020F0000843F04948610020EF498860EC48407887
:10210000401CEB494870FAE1EB48806831280FD950
:102110000020E749087008464078401C4870E548B0
:1021200040388069012149020843E2494039886109
:10213000E5E17120E14908730220C8750120C876E5
:10214000DB484078401CDA494870D8E1DB48C07E63
:102150008021084000282BD0D848C07E402108406C
:10216000002814D0D2480078401CD1490870084695
:102170000078032802DB1020487019E00020CE49C7
:102180008860CB484078401CC949487010E0CB4873
:10219000407B08210840002803D00920C44948702A
:1021A00006E00020C249087008464078801C48704C
:1021B000A5E1C1488068002804D0BD484078801E51
:1021C000BB4948709BE17020BC490873BE21BB48E5
:1021D0004173082181730021C1730420B749C87578
:1021E0000120C876B2484078401CB149487086E169
:1021F000B248C07E8021084000281FD0AF48C07E72
:1022000040210840002811D0A9480078401CA84966
:10221000087008460078032802DB102048700AE0A6
:10222000A3484078401CA249487004E0A048407888
:10223000801C9F49487000209F4988605FE19E484C
:102240008068002804D09A484078801E98494870D9
:1022500055E199488068092806D9002094490870FA
:1022600008464078401C487049E170209349087343
:10227000AC2192484173332181730021C173042042
:102280008E49C8750120C87689484078401C884925
:10229000487034E18948C07E80210840002826D05B
:1022A0008648C07E40210840002818D08048007829
:1022B000401C7F49087008460078032809DB05E0C8
:1022C000E5E0DAE03BE029E01CE011E01020487096
:1022D0000AE077484078401C7549487004E074482B
:1022E0004078801C7249487000207349886006E17C
:1022F00071488068002804D06D484078801E6C4981
:102300004870FCE06C488068592806D9002068496C
:10231000087008464078401C4870F0E0712067491A
:102320000873FF216548417308206449C87501207E
:10233000C8765F484078401C5D494870DFE05F48E0
:10234000C07E80210840002812D05C48C07E402119
:102350000840002816D056480078401C54490870A0
:1023600008460078032804DB08464078801C487043
:1023700082E00020504988604D484078401C4C491C
:10238000487079E04D48407B8021084000286BD19F
:1023900006214A480C30FEF71BFB4849C97C88429D
:1023A0005CD100204549086008460068897B0843E5
:1023B00000024249086008460068C97B08430002E1
:1023C0003E49086008460068097C08433B490860AC
:1023D00008460068000908600868FEF7D5F8064658
:1023E0009321C905FDF7DCFF0546354900F03EFEA7
:1023F0000446FEF785F83349088100202F494860DC
:1024000008464068097C084300022C494860084699
:102410004068497C084300022849486008464068F3
:10242000897C084325494860084640680003000B42
:1024300048604868FEF7A8F807469321C905FDF7EC
:10244000AFFF0646204900F011FE05461F4900F087
:1024500065FE0446FEF754F81A494881144840784E
:10246000801C1349487007E0002013498860104819
:102470004078401C0E49487041E00F4880680128B0
:1024800004D90B484078801E0949487037E00B4852
:1024900040680A49096888421AD10848006800283B
:1024A00016D101200249487000200349886025E0C8
:1024B0000E000020800C0040200000201C010020A5
:1024C0000000C842F40000200000484300004842D9
:1024D0000C4880690121890208430A498861FEF796
:1024E000C3FA00200849487088700849C87608492E
:1024F00088700120074948740749487000BF00BF31
:10250000F8BD0000800C00400E0000201C010020DF
:1025100060000020F40000206C01002000B59F48FE
:10252000807E030000F0ECFB0805214657B4D1FD86
:10253000FC209A48C07D0B2813DC9948C068994953
:1025400008439749C86008464068012108439449F8
:1025500048600020914908760846807E401C8876B5
:1025600002E080208D49C87615E18D484068C0079B
:10257000C00F00281DD18948007BC007C00F00286C
:1025800009D1874840680821884385494860002070
:102590008249487608E0824840680821084380491B
:1025A000486001207D4948767C48807E401C7B49FC
:1025B0008876F0E07948017E007E401C774A1076EC
:1025C00010460C30405C764908621046807E401C04
:1025D00011468876DFE07248C06802210840002872
:1025E00046D06E48407E00281ED16D48C068082144
:1025F000084000280FD16948007E6849C97D88429B
:1026000005DA6648807E401E6449887629E0062007
:102610006249887625E06148C07E402108435F49D1
:10262000C876062088761CE05D48C068082108400E
:1026300000280ED15948017EC07D401E814202D142
:102640000020564948765548807E401C534988767C
:1026500007E05248C07E402108435049C876062012
:1026600088764F48C068022108434D49C8600EE093
:102670004B48C068FF2101310840002807D0474877
:10268000C07E402108434549C8760620887682E00E
:102690004348406808210843414948603F48407E1C
:1026A000002806D108464068102108433C4948608C
:1026B00005E03B4840681021884339494860374865
:1026C000807E401C3549887665E03548C068C00783
:1026D000C00F00282FD03248C069C1B22F48027EF7
:1026E000007E401C2D4B187618460C3081542C4827
:1026F000C068012108432A49C8601846007E19466F
:10270000C97D884211DA1846017EC07D401E814293
:1027100002D10020194648762048807E401E01E004
:1027200025E018E01D49887614E01C48807E401C96
:102730001A4988760EE01A48C068FF210131084026
:10274000002807D01548C07E402108431349C876A9
:10275000062088761FE0124840680421084310498B
:1027600048600E48807E401C0C49887613E00C4877
:1027700040680421084000280CD1084988760846A2
:10278000C07E40084000C8760846C07E80210843CD
:102790000249C87600BF00BF00BD00001C01002038
:1027A000001C01407F3F000010B54F480078030037
:1027B00000F0A6FA05044E566C8897004B4908684D
:1027C0004B4900F053FC0446FDF79AFE46498882C7
:1027D0000846408A001288700846817CC1704548CE
:1027E000008A0012404908714248017C3E4841710C
:1027F000808A00123C4988710846017DC1713B48BE
:10280000817A394801723948017A374841720F207C
:10281000000380880004010E334881720F200003FA
:1028200001793148C1720F20000300890004010EB4
:102830002D4801730F200003017A2B484173408A11
:10284000401C2949488208460078401C087048E02E
:10285000FFF72EFA24480078401C2349087040E016
:102860002148417C801C405C23494861084600683F
:1028700003210843204908601B48407C401C1A493A
:10288000487408460078401C08702AE01A4880689E
:1028900002210840002814D017488068032108430B
:1028A000154988601048407C0B2805DD0E480078EB
:1028B000401C0D49087004E00B480078401E0A498E
:1028C00008700EE00C480068012109060840002845
:1028D00006D1FEF745F90020034908704874487096
:1028E00000BF00BF10BD00006C010020F4000020FC
:1028F0000000C842A8000020002001402248406893
:10290000C007C00F002805D11F48406801210843B7
:102910001D4948601C4840680321090408431A49BE
:1029200048601A48406B886000BF00BF00BF16486F
:1029300000681749084014490860084600681549AE
:102940000843114908601148006A48610846406B15
:10295000802108430C4948630F480068012108435F
:102960000D49086008464068012108430A4948604B
:102970000548406B2021084303494863074808493C
:1029800008600848486070470024004000FBFF1FB3
:102990003FF8F8FF00000702001000405A5A3412B6
:1029A00000140140070800000F20C00222490861FE
:1029B0000320C0028860002048602048C8600020D2
:1029C000C043C862C8130860C0111B494031086188
:1029D0000020886048601A48C8600020C043C86270
:1029E000002008600846806A002088620846006A65
:1029F0003021084310494031086212480E498031A5
:102A000008618860081448600F48C8600020C0430F
:102A1000C862002008603C200749C0310861886016
:102A2000FF20813048600948C8600020C043C86268
:102A30000020086070470000000C0040FFFF7F2965
:102A400065FF5555E302000055555565559556658A
:102A500021480078C007C00F00281ED01F48C06959
:102A60000121C9030840884210D01B480078082182
:102A70000840002803D04020174908702BE0164872
:102A80000078082108431449087024E012480078AF
:102A900008218843104908701DE01048C0690121D1
:102AA000C9030840884210D10B480078082108402B
:102AB000002803D08120084908700CE006480078FF
:102AC000082108430449087005E0034800780821FC
:102AD000884301490870704700000020000C004046
:102AE0007D20000207494861886108460069042189
:102AF0000843044908610846006901210843014967
:102B00000861704700E000E010B53C48807800287C
:102B100006D0012831D0022854D003286BD165E0BB
:102B2000FFF772F8364840690121C9020843344969
:102B300048610846406949150843314948610846DB
:102B40004069091508432E4948610846806989157E
:102B500008432B49886101202A490870FEF7EAF9E9
:102B600001202949087088700020284908612348FD
:102B70008078401C214988703DE024480069C728BE
:102B80001FD91F4880690121C90208431C49886177
:102B900008468069491508431949886108468069D3
:102BA0000915084316498861084640698915084394
:102BB00013494861FDF7B4FF10488078401C0F4965
:102BC000887018E011480069114988420DD9012028
:102BD000104988701049887201210F4820304170D7
:102BE00006488078401C0549887004E000200349AD
:102BF0008870087000BF00BF10BD000002000020F8
:102C0000400C0040000000200B00002020000020AD
:102C1000E70300000E000020A80000200020044967
:102C200008600120034948702020087070470000A8
:102C3000200000200000002010B52A4840788021A4
:102C40000840002816D0FDF76BFF27488069012156
:102C50008902084324498861002024490871487189
:102C6000234988740120487400201E494870214976
:102C700048702DE0204800687D21C900884227D295
:102C800018484078C007C00F002821D000201A49FA
:102C9000086015488069FF210131084312498861A5
:102CA000FEF7B2FF1248807C002803D101201049B2
:102CB000887402E000200E49887401200C49487491
:102CC00000200D4988611020064948700949487064
:102CD00001200A490870002048700120014908704D
:102CE00010BD000000000020400C0040110000203A
:102CF000F4000020020000202000002060000020DE
:102D000030B47446641E2578641CAB4204D3635D02
:102D10005B00E31830BC18471D46F8E7FDF790FE4E
:102D2000FFF7ECFDFFF740FE01206A498871FFF7CD
:102D3000D7FECDE068484078C007C00F00280FD00C
:102D4000664800687D21C900884209D30020644993
:102D50000870012088706349487180205E4948707E
:102D60005E484068132814D900205C494860FFF78A
:102D70006FFE5948007840210840002801D0FFF735
:102D80004DFF5548007880210840002801D0FFF70A
:102D900053FF514840781021084000280DD04F487B
:102DA0008069312809D900204C498861FDF7B8FEB7
:102DB0000020494948704C4948704C488078C00709
:102DC000C00F002801D0FFF77DF94948C07EC00739
:102DD000C00F002801D0FFF7A1FB3E488079C00753
:102DE000C00F002801D0FDF79FFC3A482030407802
:102DF000C007C00F002801D0FEF786FF3D48407C89
:102E0000C007C00F002801D0FEF7F2F834488078E0
:102E1000C007C00F002801D0FEF7D2FB324800786F
:102E2000C007C00F002801D0FFF76EFE324840787F
:102E3000C007C00F002801D0FFF7B6FC2F4800786C
:102E4000C007C00F002801D0FDF7A8FE2C4800786D
:102E5000C007C00F002801D0FEF75EFCFEF7C6FDDC
:102E6000214800782049497840182249497C401877
:102E70001B49897840181749C97E411815482030E8
:102E8000407808181E490978401812498979401875
:102E90001C49097840181549897840180E49497825
:102EA00040181049497840180E49C9784018164909
:102EB00009784018104949784018002803D1FEF7D6
:102EC00053FEFEF717F8114811490860FDF7A0FD01
:102ED00030E70000A80000200000002020000020B3
:102EE0000B00002011000020020000200E00002036
:102EF0001C010020F40000206C01002005000020CF
:102F00001C00002048010020170000205A5A3412EB
:102F10000014014070B501250C002D051C4310D490
:102F2000EC4206D4AC420AD4994200D070BD904223
:102F300070BDE94217D4EB4215D4994270BD894265
:102F400070BDEC4206D5AC42F9D58B4200D070BDC5
:102F5000824270BD6D004C00EC4204D25C00EC4239
:102F600001D28B4270BD034C30B4FDF711FB30BC75
:102F700070BD00BF1900160470B501251C002D0599
:102F80000C4310D4EC4206D4AC420AD48B4200D09D
:102F900070BD824270BDEB4217D4E94215D48B421A
:102FA00070BD9B4270BDEC4206D5AC42F9D599424A
:102FB00000D070BD904270BD6D005C00EC4204D248
:102FC0004C00EC4201D2994270BD0FB4034C0CBCD2
:102FD00003BC30B4FDF7DCFA30BC70BD1900160438
:102FE00070B501250400ED074C4020D4441A01D2ED
:102FF000001B0919C60D4B00F2B2FF2A29D01B0E87
:103000002CD000020C02D31A2C43DC4028430519B3
:1030100010D2280A02D3401C6D0611D0761EF60588
:103020008019FF2A00DA70BDC00DC00570BD69406F
:1030300000F07AF801200543C541521C761CE8E7F0
:1030400064089C40C90161408900E7D10124A04384
:10305000E4E71B0E440200D0034870BD002AFCD1F7
:10306000C00FC00770BD00BF0000C07F70B5420038
:1030700064414B005C41120E39D01B0E38D0FF2A40
:103080003CD0FF2B3AD040024902400A490A0600D0
:1030900045184E43000A090AD2184843ED017F3A09
:1030A0000104731A4019190C4318990F04D0012117
:1030B0005B0849075B1A521CD80904D3401CF5036E
:1030C00001D19D0607D0FF2A08D2D50506D0E40716
:1030D0002043401970BD0125A843F4E7002A01DC14
:1030E000E00770BD2402FF202043C00570BD1B0E09
:1030F000FF2A03D0FF2B01D0E00770BDFF2645005B
:103100003606B54206D84D00B54203D8D218FF2A7C
:1031100000D0E7E7004870BD0000C07F70B5012512
:103120000400ED074C4022D4441A02D26C40001B2C
:103130000919C60D4B00F2B2FF2A4BD01B0E50D01E
:1031400000020C02D31A2C43DC40A843051B05D512
:10315000AD0019D36D08761E521E37D0F605280A29
:1031600001D2801970BD70416D0603D070BD6940F9
:10317000FFF73CFF9C4009026140490001D0401E1E
:1031800070BD0124A04370BD6D081DD001202B0C23
:1031900001D12D0410302B0E01D12D0208302B0F40
:1031A00001D12D01001DAB0F01D1AD00801CEB0F33
:1031B00001D16D00401C6D00361A121A680AF5051F
:1031C0004019012A02DB70BD002070BDC036300AF4
:1031D000C00770BD1B0E440201D1FF2B00D1024875
:1031E00070BD002AF0D070BD0000C07F040602064A
:1031F00000020200040406020402060200020604A1
:10320000040204060406040600020202040606067E
:103210000402060604040406000602060000040078
:10322000010000000000010000000001000100009A
:103230000200000002000000080000008182838478
:1032400085868788898B8C8D8E8F919293959697A2
:10325000999A9C9D9FA0A2A3A5A7A8AAACAEB0B224
:10326000B3B5B7B9BCBEC0C2C5C7C9CCCED1D4D71F
:10327000D9DCDFE2E6E9ECF0F3F7FAFE9C3200007D
:10328000000000202000000004010000BC3200000B
:1032900020000020C81100002001000000000000F4
:1032A000000000000000000000000000000000001E
:0C32B00000000000000000000000000012
:04000005000000C136
:00000001FF
