:020000040000FA
:10000000E011002065010000690100006B010000A3
:1000100000000000000000000000000000000000E0
:100020000000000000000000000000006D01000062
:1000300000000000000000006F01000071010000DE
:1000400073010000730100007301000073010000E0
:1000500073010000730100007301000073010000D0
:1000600073010000730100007301000073010000C0
:1000700073010000730100007301000073010000B0
:1000800073010000730100007301000073010000A0
:10009000F51F0000730100007301000073010000F0
:1000A0007301000073010000730100007301000080
:1000B00073010000730100001D15000073010000B2
:1000C00000F002F800F03EF80CA030C80838241800
:1000D0002D18A246671EAB4654465D46AC4201D180
:1000E00000F030F87E460F3E0FCCB6460126334274
:1000F00000D0FB1AA246AB46334318477C370000BA
:100100009C370000103A02D378C878C1FAD8520759
:1001100001D330C830C101D504680C6070470000BD
:100120000023002400250026103A01D378C1FBD813
:10013000520700D330C100D50B6070471FB51FBDFB
:1001400010B510BD00F0FAFD1146FFF7F7FF03F000
:10015000A7F800F012FE03B4FFF7F2FF03BC00F0B3
:1001600047FE000006480047FEE7FEE7FEE7FEE721
:10017000FEE7FEE703480449044A054B70470000C8
:10018000C1000000E0010020E0110020E009002093
:10019000E0090020002203098B422CD3030A8B4282
:1001A00011D300239C464EE003460B433CD400226F
:1001B00043088B4231D303098B421CD3030A8B4281
:1001C00001D394463FE0C3098B4201D3CB01C01A4F
:1001D000524183098B4201D38B01C01A524143091A
:1001E0008B4201D34B01C01A524103098B4201D308
:1001F0000B01C01A5241C3088B4201D3CB00C01A75
:10020000524183088B4201D38B00C01A52414308EC
:100210008B4201D34B00C01A5241411A00D2014611
:100220005241104670475DE0CA0F00D049420310AA
:1002300000D34042534000229C4603098B422DD3F9
:10024000030A8B4212D3FC22890112BA030A8B42A1
:100250000CD3890192118B4208D3890192118B42F0
:1002600004D389013AD0921100E08909C3098B4275
:1002700001D3CB01C01A524183098B4201D38B01B8
:10028000C01A524143098B4201D34B01C01A52415B
:1002900003098B4201D30B01C01A5241C3088B42A0
:1002A00001D3CB00C01A524183088B4201D38B008B
:1002B000C01A5241D9D243088B4201D34B00C01A15
:1002C0005241411A00D20146634652415B1010462A
:1002D00001D34042002B00D54942704763465B1072
:1002E00000D3404201B50020C046C04602BD704761
:1002F00070477047F0B5F94D0C091E092C402E408F
:100300002F468BB0A7437DD0B543FCD0002E7AD0CA
:10031000002CFCD00D465D40ED0F2543AC1BFF25A6
:10032000AD0464190894C502440DC9022143500D5F
:10033000DC0204430120C00701430443D2020191BF
:10034000200C110C00958C46010423468B430A9126
:1003500061460904E24D8A430991010A7D44491925
:100360008039097805464D4301266D18F605751B41
:100370006943C90C640B891C4C436418B5012C1BE0
:10038000250C2E04B4434C434D43210C69188909B4
:100390000591009DE90701D00121C90704912C4670
:1003A00001996708CD072F434C08059DE10B4D438C
:1003B0002D0C29466646754302950D4645432E464B
:1003C000029D7D1BB44100950D465D4301942C0CAC
:1003D0002F040D465543AE462D0C3D430295039424
:1003E0007546049C2D04641B049406D2029C039D54
:1003F000641C002675410395029401AC70CC009FEB
:100400007D1B01E03EE162E1B441090400950791E2
:1004100001940599A4086143090C0C464443650BFB
:10042000E7040C4666467443A646640B3C430395BA
:1004300002947446049DE4042C1B049406D2029C8E
:10044000039D641C002675410395029401AC70CC99
:10045000009F7D1BB44101940C465C430095650FE1
:10046000E7000C465443A646640F3C4303950294B0
:100470007446049DE4002C1B049406D2029C039D48
:10048000641C002675410395029401AC70CC009F5A
:100490007D1BB441AE09AF06049DC900AD092F43D1
:1004A000049DA406AD060495079D34436918079181
:1004B000059DE10B4D432D0C29466646754302957B
:1004C0000D4645432E46029D7D1BB44100950D46C9
:1004D0005D4301942C0C2F040D465543AE462D0C64
:1004E0003D43029503947546049C2D04641B0494BB
:1004F00006D2029C039D641C00267541039502945C
:1005000001AC70CC009F7D1BB44101948C05069416
:10051000079C890A611800950791019C0599A40818
:100520006143090C0D464543680BEF040D466446D4
:1005300065436C0B3C43049FED047D1BAC4602D22B
:100540000025641C6841009E019D371B85410846BB
:10055000584301950C46460FC5005443600F28438D
:100560006546E4002C1B02D20025401C6E41019D13
:100570003F1AB5412846BD09800628438446A00994
:10058000BF064E020699A40676180743079D002071
:1005900068410A99079019430020099B0090604622
:1005A000FF1913434041E20F64003A43A446044656
:1005B000D71A8C41A04203D90120009020463A4628
:1005C000C70F941840416246D20F2243644664002C
:1005D0000494009CBE466400D71AA44604460297C1
:1005E0008C417746002F01D1A04204D96046401CBF
:1005F0008446029A2046C40FA64694184041049AA5
:100600000546D20F224364466400D31A8D417146D9
:10061000002901D1A84202D928461A46641C104379
:100620000122002800D0164361020020079B89198F
:1006300004465C410223002C02DB49181346644146
:10064000089DCE0A2D145D194B056705E10A2C059E
:100650000D1908993E43C9076940002B08D0934003
:1006600006D30022761C5141002B01D1760876007A
:100670001C4A002D43DB154241D0AA433FD03046EF
:100680000BB0F0BD06180D464D41174C7642AC41FB
:100690001AD395181C465C41134A6D42A24113D3EC
:1006A000012252054C00D4420AD15C00D4420BD046
:1006B0004B4002D592021143E2E749004908DFE7C7
:1006C0005940C90FC90718E000200849D8E7054874
:1006D00001420DD10342F7D0F2E700000000FF070E
:1006E000583400000000F07F0000E0FF0000F87FB9
:1006F000114859400143C01241400020C0E7012386
:10070000089A9B069A4205DC032252078918C90FF2
:10071000C907B5E7052252078918074A1143D212C3
:100720005140ADE770B515461C4602460B462846BB
:100730002146FFF7DFFD70BDFFFFFF7F0346CA02C2
:10074000400D10B510430A1504D00124E4072043DE
:10075000002A05DB0A4CA21A04D4D040FF2A00DD8F
:10076000002010BD4A00002B01D0012000E0002035
:10077000101801225205D042F2D8C817C04310BD4C
:100780001E0400001F22030C02D10F22000402D01D
:10079000030E03D004E00020014670470002083A2F
:1007A000030F01D10001121F830F01D18000921E9F
:1007B000002801DB4000521E120551184205C012EC
:1007C000411810467047C10FC90700D040420122AE
:1007D00092071143D6E701218907D3E7F0B58B4C87
:1007E0000F09254689B0BD437BD01D092646AE437F
:1007F000FAD00E465E402740F60F3E43254071D0AA
:1008000024012142FBD0FF24AD19A4042D1B039524
:1008100001252D05DB02DB0AC9022B43C90A294346
:100820001E010901040F130F050121431701880B55
:10083000820391432D098C46A90B1E438A039543DD
:10084000B30B9A0396433F09BA0B9403A74302964E
:100850002E467E430497B6464E19D7190C4601968C
:10086000544305977E43371B7646BF1B3601B64679
:10087000BE0B361900967646BC043719009C01D38E
:10088000641C00946400002F01D001263443029EB2
:10089000049F754366467E430496760034196E00C5
:1008A00034190094029C019E1C196643751BAE46C8
:1008B000069465464519059C05956C435943754654
:1008C0000891691A0191049E01465143A41B0491A9
:1008D000611A009C0791E10605D0610901221143CC
:1008E00002E072E06EE06109089D00272C0A2D06E7
:1008F0006918049D7C412A0A2D066918019D6241F0
:10090000AC0DAD026D185441079A910D9202551924
:100910006141029A644658435443069B059A5A43E0
:10092000121A131B9A0E9B015B187A41010B0005EA
:10093000C3185141220A200644195A419A4200D252
:10094000491C01204002814203D315230226F643AD
:1009500002E014230326F6432020C51AA9401746B7
:10096000AF40DA400A4320460399D840091473186F
:1009700019055118039A3843D2075140AC4009D0A9
:100980000122944006D30022401C5141002C01D189
:10099000400840001E4A934212D301220398920657
:1009A000904207DB0520400709181A480143C0128E
:1009B000414004E0032040070818C10FC907002088
:1009C00009B0F0BD0020F107FAE705180C464C41CC
:1009D00011486D42A04115D394181A465A410E4849
:1009E000644290410ED301204A004005824209D35F
:1009F0005A00824206D35940C90F084AC90700204D
:100A00001143DDE700200649DAE700000000FF0798
:100A1000FE070000FFFFFF7F0000E0FF0000F07F07
:100A20000000F87F0121C9050123411842001B067F
:100A3000D3185B0E0AD0C1100722D20689184007CE
:100A40005242D14201D5520089187047090208D597
:100A50000146002A03D0C10FC90700207047104685
:100A60007047420202D00020024970470721090561
:100A70000143F4E70000F87FF0B5FF252D04C60917
:100A8000C209FF2704462E400137CB093E434840A8
:100A90002A402B400746002A6BD0002B69D0AA427F
:100AA00067D0AB4265D0002800DA32460125ED055B
:100AB00029432C4309022002090AD21A4B0C7F2435
:100AC000E31A434C000A7C44E35C7D24240412199D
:100AD00014145B00A218884201D3521C00E04000AD
:100AE00049420C465C4324115C43DB016415E31866
:100AF000040A5C43C502200D0C4644436419250AD0
:100B00005D432303EC0C0D46654300030019EB180D
:100B10004C42A34201D35B18401CD4052018002B83
:100B200007D05B00C91804D3401C002901D140083C
:100B300040003F2189048A4209D3002A08DC1106BB
:100B4000090F04D0032149074018C00FC007F0BDAA
:100B500001224100120689187F2252069142F6D2E4
:100B600005214907C84201D59010F0BDFF20C005FE
:100B7000F0BD002F00DA32461648AA4207D2AB4237
:100B800005D21902090E17D0F80FC007F0BDFF25D6
:100B900063002D06AB42F9D84900A942F6D8AB4212
:100BA00001D1A942F2D0A94201D1002101E06100A6
:100BB0004908D0050843F0BD1102090EFBD0FF2003
:100BC0000243D005F0BD0A460146104654E7000036
:100BD0006E2D00000000C07F0102C21504D0012369
:100BE000DB071943002A0ADB9E239A1A02D408461F
:100BF000D0407047FF2241001206914201D90020E7
:100C00007047C017C04370471F22030C02D10F2248
:100C100000041CD0030E01D10002083A030F01D1D9
:100C20000001121F830F01D18000921E002801DBFA
:100C30004000521ED205511802125118192290403C
:100C400004D3491C002801D14908490008467047CF
:100C5000C10FC90700D04042012292071143D3E7D8
:100C600001218907D0E70000F8B5224C4E00069D0F
:100C7000A6420AD8A64201D1002806D15E00A642AB
:100C800003D8A6420AD1002A08D00D242404254204
:100C90002CD02946002000F02FF8F8BD0C461C434C
:100CA0000CD4994202D0EFF30080F8BD904202D0FC
:100CB000EFF30080F8BDEFF30080F8BD09242407AE
:100CC000E5008B4206D0EFF30080A043591A06D20C
:100CD000284304E0101A05D3EFF30080A04380F30B
:100CE0000088F8BDEFF30080A043F1E7009500F025
:100CF0001BF8F8BD0000E0FFC80212D54803400F02
:100D0000002804D0C803C043012188407047EFF396
:100D100000800001000903210907084380F30088CF
:100D2000704700207047000010B500200249029A69
:100D300000F02BF810BD00000000F87F754600F0B1
:100D400053F8AE46050069465346C008C0008546C4
:100D500018B020B5FFF70EFA60BC00274908B64668
:100D60000026C0C5C0C5C0C5C0C5C0C5C0C5C0C5BA
:100D7000C0C5403D49008D46704710B50446C04689
:100D8000C0462046FFF7E7F910BD10B50C46110725
:100D9000090F092904D00A290AD008290CD104E036
:100DA00011460820FFF7A8FF06E0510606D501E02E
:100DB000510601D50120C007214610BDD10607D537
:100DC00001010909CC084907000E0006044309E0A7
:100DD000410F20024907000A0143200E00061D2290
:100DE000D14101430846E7E7004870477C010020F5
:100DF00001491820ABBEFEE7260002007047000044
:100E000073480079002806D0012832D002287DD00E
:100E100003282DD1CDE06F480069012108436D49B9
:100E200008616D48806B891508436B4988636B487E
:100E3000C069E02188436949C8610846C06920212A
:100E400008436649C8610846006A65490840634925
:100E500008620846006AB121090408435F49086234
:100E600000206049C8605A480079401C5849087100
:100E7000ACE05C48C068092858D95848006901218D
:100E80000843564908610846C06A0121090408431D
:100E90005249C862514840300068FF21F13188430F
:100EA0004E4940310860084600681F2149028843C6
:100EB0004A494031086008460068491408434749D8
:100EC000403108604548006901210904084343494D
:100ED0000861424840304068FF21F13188433F4972
:100EE00040314860084640681F21490288433B4919
:100EF000403148600846406811214902084337499B
:100F00004031486035480069012100E00FE04904A4
:100F100008433249086108464069032108432F49C4
:100F200048612B480079401C294908714EE0032094
:100F30002A4909680140814201D1012100E00021D4
:100F4000002935D025488030006821490880234891
:100F50008030406848802148C06A400B40031F49E8
:100F6000C8621B4909881A4A528889181E4A881A79
:100F7000C10F09184910194AD26A1143174AD162A0
:100F80001046C06A0121090488431146C862084618
:100F9000006940084000086108460069032109040F
:100FA0008843114608610A480079401C08490871C5
:100FB0000CE00F20000300780C49087701200C4951
:100FC0000870002002490871887100BF00BF704797
:100FD000A80000204020004000240040005C0140A8
:100FE000FFFF00FE20000020FF0F00006C0000202B
:100FF000020000200B4800694008400009490861D0
:101000000948806B89158843074988630748084960
:10101000C8610520000208620120054940310861CD
:1010200070470000402000400024004020013000B4
:10103000005C014012480069012108431049086121
:101040001048806B891508430E4988630E48C069B3
:10105000E02188430C49C8610846C0692021084343
:101060000949C861002008620846006A0749084328
:1010700005490862012004494031086170470000B9
:101080004020004000240040005C0140040F8D001F
:1010900070B50246FF20521C002315E01578684009
:1010A00000240CE080250540002D04D045003126A9
:1010B0007540E8B201E04506280E651CECB2082C2C
:1010C000F0DB521C5D1CEBB28B42E7DB70BD000015
:1010D0000949096901221204114000290BD000209E
:1010E00000BF8100054A5158491C8200034B9950AA
:1010F000401C0F28F5D3704700E000E020000020DE
:1011000010B500BFEFF308821146CA04510D00204C
:1011100000BF00228300012464071B191A60401CD1
:101120008842F6D310BD00001248C0681249084337
:101130001049C860002008601048C06801210905F6
:1011400088430E49C8600D484038C06B8905884304
:101150000A494039C8630A48C0680F218905884395
:101160000749C8600846C068052189050843044945
:10117000C8607047001C01407F3F000040240040D1
:10118000000C004000201349C860086148610860F5
:1011900088611148406B400840000F4948630E4881
:1011A00040304068C91488430B49403148600846C4
:1011B000C0680221884308494031C86014200028D3
:1011C00005DBC206D20E01219140044A116000BF26
:1011D00070470000008801400024004080E100E0EA
:1011E00000200D4908604860C86288624861086252
:1011F000486308630861084940314860074800684F
:1012000010218843054908600846C06809148843CE
:101210000249C8607047000000800140402400403F
:101220000C484068800880000A49486009484038F6
:10123000C06B8915884307494039C8630548C068B1
:10124000102188430349C86000200349086288616F
:1012500008607047402400400020014070B5A3485A
:101260004078030002F00EF808050E214187CCE714
:10127000F60D00209E4948629C484078401C9B49DE
:10128000487031E19A48406A9A4988420CD99A4894
:10129000407E002808D101209749887248769348FB
:1012A0004078401C914948701EE19348407E0028D8
:1012B0001AD192490868FFF7B5FB0446904A914B52
:1012C00002F0E6F80DD201208B49887448768748F1
:1012D0004078401C8549487008468078401C8870DA
:1012E00002E0002081494870FEE08348407E0028EB
:1012F00040D18148018A7D488078420082488152ED
:101300007A4880780A2806DA00207949486207205E
:10131000764948702EE07548C078002812D17A4886
:1013200000F018F97849091F088300200877012088
:1013300076498873022088706C484078401C6B495D
:10134000487011E0704800F005F96F49091F4883A3
:101350000F2000038088088300206C49887363484D
:101360004078801C614948700020604988700120E5
:1013700066490870B8E06548007800283FD10F2022
:10138000000380886049091F08835B49098A5E4A17
:10139000121F128B881A002801DB014600E041422F
:1013A00005291FDC01205849091F0870887058481A
:1013B00080690121C902084355498861084680694E
:1013C0000915084352498861084680694915084350
:1013D0004F49886164204949888000208873012032
:1013E000C87308E000204849091F0870022088706F
:1013F00001204849087000203C494870087073E09B
:1014000042480078002815D13F49091F486303214D
:101410003D481C30017601203B49091F08773B49B4
:101420008873052088700120087030484078401C7F
:101430002E49487058E03548007800284AD1324A91
:10144000121F528B0F231B039B68D11A002902DB4A
:101450000A4601E03FE04A42052A2EDC2A4A121FD2
:10146000128B0F231B035B68D01A002801DB024696
:1014700000E04242052A20DC01202349091F487070
:1014800003208870224880690121C902084320494D
:10149000886108468069091508431D498861084626
:1014A0008069491508431A49886164201349888076
:1014B000002088730120C87308E000201249091F2A
:1014C00048700220887001201249087000200749E6
:1014D0004870087008E00648406A0F49884202D9FF
:1014E00002200249487000BF00BF70BD0500002007
:1014F0002000002087130000A8000020EC0000203E
:101500009A9999999999054070000020300100201E
:10151000400C00401C000020E703000010B508202C
:101520000A4949690140814201D1012100E00021BD
:1015300000290AD008200549486100BF01F0A4FC39
:10154000FFF720FE01200249487010BDC00D004089
:101550000200002030B501460B880C8800220020D4
:1015600011E045004D5B9D4201DD45004B5B4500B0
:101570004D5BA54201DA45004C5B45004D5BAD1863
:10158000AAB2451CE8B20A28EBDB1819101A82B27D
:101590001046D5176D0F2D18EA10104630BD00000B
:1015A000C0202A4908608020C04388600820086164
:1015B0002748006801214906084325490860244856
:1015C0004030C0684905084321494031C860084699
:1015D0004068090608431E49403148601B480068BE
:1015E000C0210843194908600846006908210843DA
:1015F00016490861084680688021C9430843134999
:101600008860084640690821084310494861012064
:10161000800710490860104908600F48803803218E
:1016200009024018C069FF21090488430121C90546
:10163000401809498039032212028918C861012023
:10164000800705498039086070470000C00D0040E0
:101650000024004080E200E080E100E070B5F7483F
:10166000807B030001F00EFE0A06148EE3F8F7F605
:10167000F5F4F31300F058FD0020F1494862886248
:10168000C8620863ED48807B401CEC498873C3E264
:10169000EA488088EB49884201DD084601E0E748D6
:1016A0008088E649888088886421FEF77DFDE349CB
:1016B0008881E348406A89898900E34A515C0901CD
:1016C0000843DF4948620846806ADC498989890005
:1016D0008918497809010843D94988620846C06ACF
:1016E000D649898989008918897809010843D4492C
:1016F000C8620846006BD149898989008918C97870
:1017000009010843CE490863CC4988880A21FEF7BD
:101710004BFD84B20A212046FEF746FD88B2C74938
:101720008881C748406A89898900C74A515C890015
:101730000843C34948620846806AC04989898900CC
:101740008918497889000843BD4988620846C06AFB
:10175000BA49898989008918897889000843B84974
:10176000C8620846006BB549898989008918C9781B
:1017700089000843B2490863B048807B401CAF49E8
:10178000887349E2AD4988880A21FEF70DFD88B2C9
:10179000AA498881AA48406A89898900AA4A515C75
:1017A0000843A74948620846806AA4498989890094
:1017B000891849780843A24988620846C06A9F4947
:1017C000898989008918897808439D49C862084633
:1017D000006B9A49898989008918C9780843984912
:1017E00008630846406A11464031097A0843944923
:1017F00048620846806A1146483149780843904952
:1018000088620846C06A11464831897808438C4985
:10181000C8620846006B11464831C97808438849B8
:1018200008638648807B401C84498873F4E18349BF
:101830000868FFF7F7F80446844A854B01F05AFE22
:101840000BD87E48807B401C7C4988732BE034E1B8
:10185000C6E09EE076E04EE026E078490868FFF7B3
:10186000E1F804467B4A7C4B01F044FE05D87348FE
:10187000807B801C7149887315E070490868FFF708
:10188000D1F80446734A5242744B01F033FE05D836
:101890006A48807BC01C6949887304E06748807B84
:1018A000001D66498873B7E16548406A6649203182
:1018B000097D09070843624948620846806A62490F
:1018C0003431497808435E4988620846C06A5E49F7
:1018D0003431897808435A49C8620846006B5A492E
:1018E0003431C9780843564908635448807B401C0A
:1018F0005249887390E15248406A53492031097E29
:1019000008434F4948620846806A4F493831497850
:1019100008434B4988620846C06A4B493831897888
:10192000090708434649C8620846006B46493831F2
:10193000C9780843424908634048807B401C3F49BE
:10194000887369E13E48406A3F492031097F084376
:101950003B4948620846806A3B493C314978084324
:10196000374988620846C06A37493C31897808435C
:101970003349C8620846006B33493C31C9780907CE
:1019800008432F4908632D48807B401C2B498873EE
:1019900042E12B48406A2C494031097808432849E4
:1019A00048620846806A2849403149780907084357
:1019B000234988620846C06A234940318978084330
:1019C0001F49C8620846006B1F494031C978084367
:1019D0001B4908631948807B401C184988731BE128
:1019E0001648007C00283BD114480089134988819F
:1019F0000846008948811248406A134940310979F4
:101A0000090708430E4948620846806A0E49443176
:101A1000497808430A4988620846C06A0A4944313D
:101A2000897808430649C8620846006B0649443174
:101A3000C97808430249086339E00000EC0000203F
:101A4000000C0140E7030000683700006666666628
:101A500066660640CDCCCCCCCCCC044033330340BE
:101A60006E48C0886D4988810846C08848816C48A6
:101A7000406A6C49097B090708436949486208467E
:101A8000806A68490C31497808436549886208468C
:101A9000C06A64490C31897808436149C8620846C4
:101AA000006B60490C31C97808435D4908635B48A5
:101AB000807B401C59498873AEE058494989574A90
:101AC0009289881AFEF77FFE04460022564B01F0E9
:101AD00011FD03D851488089401C01E04F4880899E
:101AE0004E49488148890A21FEF75EFB84B20A21EB
:101AF0002046FEF759FB88B248498881084680890C
:101B0000800048494039085C022108408007434969
:101B100089898900434A403A515C891040184049FC
:101B2000496A08433E4948623C4880898000114622
:101B30004018407802210840800738498989890087
:101B400089184978891040183549896A0843344909
:101B500088623248808980001146401880780221CE
:101B6000084080072D49898989008918897889105A
:101B700040182B49C96A08432949C8622748808907
:101B8000800011464018C078022108408007234990
:101B9000898989008918C978891040182049096BFA
:101BA00008431F4908631D4948890A21FEF7FCFACA
:101BB00088B21A4988811A48406A89898900194A75
:101BC000403A515C09070843154948620846806A53
:101BD00012498989890089184978090708431049F9
:101BE00088620846C06A0D49898989008918897800
:101BF000090708430A49C8620846006B07498989F2
:101C000089008918C9780907084305490863002035
:101C10000249C873887300BF00BF70BDEC0000208C
:101C2000000C0140A83700000000E03F00B552481A
:101C30004078002806D001281CD002284DD0032867
:101C400017D192E000F070FA00204C494862886297
:101C5000C862086348480078012805D146484078A2
:101C6000801C4549487004E043484078401C424984
:101C700048707FE0002028E04149097C4200914003
:101C80003E4A526A11433D4A51623D4910314978FA
:101C900042009140394A926A1143384A9162384968
:101CA0001031897842009140344AD26A1143334A54
:101CB000D16233491031C978420091402F4A126BEA
:101CC00011432E4A1163411CC8B20328D4DB2A48B1
:101CD0004078801C284948704CE02848406A2849D0
:101CE000097A89000843254948620846806A2449E0
:101CF0000831497889000843204988620846C06A4B
:101D00001F4908318978890008431C49C862084680
:101D1000006B1B490831C9788900084317490863DB
:101D20000846406A1649097B084314494862084638
:101D3000806A13490C314978084310498862084683
:101D4000C06A0F490C31897808430C49C8620846BB
:101D5000006B0B490C31C9780843084908630648F1
:101D60004078401C0449487004E000200249887013
:101D7000487000BF00BF00BD0B000020000C0140F8
:101D80008837000097484078002804D001287DD08B
:101D900002287CD11BE194488078002819D10F20BB
:101DA00000030068401C002813D1904840690121BD
:101DB000C90208438D4948610846806949150843AE
:101DC0008A4988610846406909150843874948617E
:101DD00066E085488078002818D10F20000300684D
:101DE000002813D1814840690121490208437F49F5
:101DF000486108464069091508437C49486108461E
:101E00008069C91408437949886149E07648807837
:101E1000012813D1754840690121C902084373495B
:101E200048610846406949150843704948610846B9
:101E30008069091508436D49886131E06A488078F6
:101E4000022813D169484069012189020843674982
:101E5000486108468069C914084364498861084696
:101E60008069491508436149886119E05E488078B6
:101E7000032815D15D4840690121490208435B49A7
:101E80004861084640690915084301E011E0A6E0F1
:101E90005649486108468069C91408435349886116
:101EA0000020534988624F484078401C4D49487093
:101EB00095E04F48806A63287ED94B488078002897
:101EC00019D10F2000030068401C002813D1474897
:101ED00040690121C90208434449486108468069B4
:101EE0004915084341498861084680690915084336
:101EF0003E49886165E03C488078002818D10F2071
:101F000000030068002813D13848406901214902C4
:101F10000843364948610846806909150843334932
:101F2000886108468069C91408433049886148E0DF
:101F30002D488078012813D12C4840690121C9021D
:101F400008432A49486108468069491508432749DA
:101F5000886108464069091508432449486130E012
:101F600021488078022813D1204840690121890244
:101F700008431E49486108468069C91408431B4943
:101F8000886108468069491508431849886118E046
:101F900015488078032814D114484069012149026A
:101FA00008431249486108468069091508430F49EA
:101FB00088610846406900E008E0C91408430B49FD
:101FC000486108484078401C0649487007E00848C6
:101FD000806AC72802D900200249487000BF00BFAC
:101FE000704700001C0000206C000020400C0040E6
:101FF0002000002010B500BF0D4840694021084076
:102000008009002813D000BF40200949486100BF63
:1020100000F03AFFFFF7B6F806488078401C054903
:10202000887008460079401C08710120487010BD76
:1020300000880140600000200F488078002807DDFC
:1020400000200D49887001200C49887288744876F8
:102050000948407801280ED10748007800280AD0A6
:1020600007484069FF2101310843054948610020C4
:10207000014908704870704760000020A8000020E7
:10208000400C00402148C069042188431F49C861B1
:102090001F48C06B0121090708431D49C8631C483C
:1020A00040304068032109048843194940314860A1
:1020B0000846C06801210905084315494031C86038
:1020C000144815490861154848610120086000203E
:1020D000486088600846C068114908430E49C860D6
:1020E0001048C0680F21890588430E49C86008461A
:1020F000C0680521C90508430A49C8600846006A46
:102100000F2189058843074908627047002800406D
:1021100000240040C800C800001C01406400080002
:102120007F3F0000000C00400F48C0690121890773
:1021300088430D49C8610D48406B01214906084399
:102140000A4948630A480B490860402088605720C4
:102150004002C860002048610F20064940310861F4
:1021600005484861704700000028004000240040F6
:10217000398F0002000C01407F0000F02448406BC2
:102180000121084322494863214840304068C9146E
:1021900008431F49403148600846C068022108438F
:1021A0001B494031C8601B4800680321890208436D
:1021B0001849086005204003C860084600694021AE
:1021C0000843144908610846406940210843114901
:1021D000486101200005104908600F48803803213C
:1021E000090240184069000A000240300A4980395B
:1021F000032212028918486101200005064980392E
:1022000008600448806901210843024988617047D9
:10221000002400400088014080E100E0264800687A
:1022200010210843244908600846C068091408437F
:102230002149C86021482249C862084600688021B7
:1022400008431F4908600846806A8862084640695A
:10225000012108431A494861002008620846406885
:102260000321090208431649486008468069602135
:102270000843134988610846006A0521084310494C
:102280000862FF201C3048630846006901210843AA
:102290000B490861002008630846006801210843D3
:1022A000074908600648403040680121C9030843D7
:1022B0000349403148607047402400403502000027
:1022C0000080014013484068800880001149486040
:1022D00010484038C06B891508430E494039C8631F
:1022E0000C48C068102108430A49C8600A48006ABF
:1022F00009490862CF20886108460068F0218843B8
:1023000005490860084600684321084302490860FF
:10231000704700004024004000200140F0B585B027
:10232000D048007E030000F0ADFF0906223885B0DA
:10233000D9FDFCFB2100CB48807A012806D1C94891
:10234000807C012802D10220C6498874C548807C5F
:10235000022806D1C348807A002802D10120C14951
:102360008874C048007E401CBE49087676E1FEF7BE
:1023700061FEBC48807A012806D1BB484069FF2134
:1023800001310843B84948610020B849C860B548E0
:10239000007E401CB349087660E1B448C068092853
:1023A00047D9B348006901210843B1490861B148E0
:1023B000C06B10210843AF49C863AA48807A01283E
:1023C00010D121200002AA49486308460068102164
:1023D0000843A74908600846006901210905084328
:1023E000A34908619F48807C012817D109208002F9
:1023F0009F49486308460068102108439C490860CB
:10240000084600693F210904884399490861084644
:10241000006901210905084395490861944840690C
:1024200010210843924948618E48007E401C8D4926
:10243000087613E18E480068C006C00F002823D03C
:102440008848807A012811D189488030006940008D
:102450008949884201D9084601E0824800898149BA
:1024600008810889FEF7FCFB844908607D48807C70
:10247000012804D17E48803000697A4988817948F2
:10248000007E401C77490876E8E079480068C0067D
:10249000C00F002821D07648803000697149C88279
:1024A0000846807A01280FD1C88AFEF7D9FB044676
:1024B000724908682146FEF7DFFA704908606948EA
:1024C000007E801C674908766648807C012804D11C
:1024D0006448007E401C63490876BFE06448006899
:1024E000C006C00F00285ED05E48807C01282FD136
:1024F0005F488030006981B25A48C18101468A89AB
:10250000C9895018C10F0918C9030A0C55490A8214
:102510005A490868FEF786FA06460022584B02E040
:1025200085E061E040E0FDF7E5FE04460D464D49DB
:10253000088AFEF750F922462B4601910090FEF7DB
:102540004DF903910290FEF7F9F881B245480182F6
:102550004448008A4B49884220DC4249098A08469F
:10256000FF380C38FEF72FF904460022464BFEF7E1
:1025700035F90022454B03910290FDF7BBFE06465C
:10258000FEF7DCF83D49888008468088002802DD97
:102590000846808800E00020384988803148007E65
:1025A000401C3049087659E03148006A0020304923
:1025B0000862084600690121090588432C49086121
:1025C000012048632B48C06B102188432949C86308
:1025D0002748006940084000254908612148007EDD
:1025E000401C2049087639E0FEF704FD1D48807A3A
:1025F00001280AD11C488069FF21013108431A498A
:1026000088610020174988720BE01648807C0128F9
:1026100007D100201349887401201D4948701D49C5
:1026200088701048007E401C0E49087616E00D4860
:10263000807A00280ED10B48807C00280AD10948F6
:10264000008A0E4988800120C87300200549087659
:10265000487602E000200349087600BF00BF05B0BD
:10266000F0BD0000A8000020800C004020000020E9
:10267000005C014000200040FF0F0000EC00002043
:1026800000000840250400000000594000D08840A8
:10269000640100200E000020F8B5FA4840780300DD
:1026A00000F0F0FD110A1C313E717B90B7C1CDE204
:1026B000FDFCFBFAF9F81B00FFF7E4FCF248406967
:1026C000012189020843F04948610020EF498860F0
:1026D000EC484078401CEB494870F8E1EB488068D2
:1026E00031280FD90020E749087008464078401C7F
:1026F0004870E54840388069012149020843E249B1
:1027000040398861E3E17120E14908730220C8750E
:102710000120C876DB484078401CDA494870D6E191
:10272000DB48C07E8021084000282BD0D848C07EDE
:1027300040210840002814D0D2480078401CD149DC
:10274000087008460078032802DB1020487019E062
:102750000020CE498860CB484078401CC949487069
:1027600010E0CB48407B08210840002803D0092016
:10277000C449487006E00020C24908700846407805
:10278000801C4870A3E1C1488068002804D0BD487F
:102790004078801EBB49487099E17020BC4908739D
:1027A000BE21BB484173082181730021C1730420FD
:1027B000B749C8750120C876B2484078401CB14975
:1027C000487084E1B248C07E8021084000281FD0B4
:1027D000AF48C07E40210840002811D0A9480078A9
:1027E000401CA849087008460078032802DB102026
:1027F00048700AE0A3484078401CA249487004E0B1
:10280000A0484078801C9F49487000209F498860FC
:102810005DE19E488068002804D09A484078801E78
:102820009849487053E199488068092806D90020E2
:102830009449087008464078401C487047E1702071
:1028400093490873AC21924841733321817300216D
:10285000C17304208E49C8750120C8768948407824
:10286000401C8849487032E18948C07E8021084078
:10287000002826D08648C07E40210840002818D075
:1028800080480078401C7F4908700846007803287B
:1028900009DB05E0E5E0DAE03BE029E01CE011E0DF
:1028A000102048700AE077484078401C754948700D
:1028B00004E074484078801C7249487000207349D5
:1028C000886004E171488068002804D06D48407831
:1028D000801E6C494870FAE06C488068592806D917
:1028E00000206849087008464078401C4870EEE0B7
:1028F000712067490873FF216548417308206449C6
:10290000C8750120C8765F484078401C5D49487012
:10291000DDE05F48C07E80210840002812D05C487E
:10292000C07E40210840002816D056480078401C40
:102930005449087008460078032804DB08464078AC
:10294000801C487082E00020504988604D484078E3
:10295000401C4C49487079E04D48407B802108403C
:1029600000286BD106214A480C30FEF791FB4849FC
:10297000C97C88425CD1002045490860084600684F
:10298000897B084300024249086008460068C97B09
:10299000084300023E49086008460068097C084375
:1029A0003B49086008460068000908600868FEF7AF
:1029B00057F906469321C905FEF75EF805463549E5
:1029C00000F012FE0446FEF707F93349C8800020E4
:1029D0002F49486008464068097C084300022C499A
:1029E000486008464068497C08430002284948601E
:1029F00008464068897C0843254948600846406885
:102A00000003000B48604868FEF72AF90746932147
:102A1000C905FEF731F80646204900F0E5FD0546F8
:102A20001F4900F039FE0446FEF7D6F81A4908811E
:102A300014484078801C1349487007E0002013496F
:102A4000886010484078401C0E4948703FE00F48AD
:102A50008068012804D90B484078801E09494870D5
:102A600035E00B4840680A49096888421AD108488D
:102A70000068002816D1012002494870002003494F
:102A8000886023E00E000020800C00402000002021
:102A9000140100200000C842EC0000200000484360
:102AA000000048420B488069012189020843094916
:102AB0008861FEF739FB0020074948708870074994
:102AC000C8760749887001200649C87300BF00BF57
:102AD000F8BD0000800C00400E0000201401002012
:102AE00060000020EC00002000B59F48807E0300BD
:102AF00000F0C8FB0805214657B4D1FDFC209A48D8
:102B0000C07D0B2813DC9948C06899490843974950
:102B1000C860084640680121084394494860002085
:102B2000914908760846807E401C887602E0802025
:102B30008D49C87615E18D484068C007C00F002850
:102B40001DD18948007BC007C00F002809D18748E4
:102B500040680821884385494860002082494876BA
:102B600008E0824840680821084380494860012005
:102B70007D4948767C48807E401C7B498876F0E021
:102B80007948017E007E401C774A107610460C3052
:102B9000405C764908621046807E401C114688766B
:102BA000DFE07248C06802210840002846D06E4825
:102BB000407E00281ED16D48C068082108400028CA
:102BC0000FD16948007E6849C97D884205DA6648A8
:102BD000807E401E6449887629E006206249887616
:102BE00025E06148C07E402108435F49C876062041
:102BF00088761CE05D48C0680821084000280ED196
:102C00005948017EC07D401E814202D100205649B4
:102C100048765548807E401C5349887607E05248E4
:102C2000C07E402108435049C876062088764F4828
:102C3000C068022108434D49C8600EE04B48C06897
:102C4000FF2101310840002807D04748C07E4021BD
:102C500008434549C8760620887682E043484068A4
:102C600008210843414948603F48407E002806D17A
:102C700008464068102108433C49486005E03B484D
:102C8000406810218843394948603748807E401C9D
:102C90003549887665E03548C068C007C00F002810
:102CA0002FD03248C069C1B22F48027E007E401C3E
:102CB0002D4B187618460C3081542C48C0680121E1
:102CC00008432A49C8601846007E1946C97D8842D3
:102CD00011DA1846017EC07D401E814202D10020DB
:102CE000194648762048807E401E01E025E018E025
:102CF0001D49887614E01C48807E401C1A4988765D
:102D00000EE01A48C068FF2101310840002807D0B2
:102D10001548C07E402108431349C87606208876AE
:102D20001FE01248406804210843104948600E48DB
:102D3000807E401C0C49887613E00C4840680421D2
:102D4000084000280CD1084988760846C07E400813
:102D50004000C8760846C07E802108430249C876F4
:102D600000BF00BF00BD000014010020001C014096
:102D70007F3F000010B53F480078030000F082FA62
:102D800005042F374D6978003B4908683B4900F03E
:102D90002BFC0446FDF720FF364988820846408A0E
:102DA000001288700846817CC1703548008A001284
:102DB000304908713248017C2E4841712E48017A11
:102DC0002C4881712C4881792A48C171408A401C65
:102DD0002849488208460078401C087048E0FFF700
:102DE00071FA24480078401C2249087040E02148CC
:102DF000417C801C405C23494861084600680321EF
:102E00000843204908601B48407C401C194948740D
:102E100008460078401C08702AE01A4880680221A1
:102E20000840002814D0174880680321084315493A
:102E300088601048407C052805DD0E480078401C5D
:102E40000C49087004E00B480078401E09490870DE
:102E50000EE00C480068012109060840002806D150
:102E6000FEF7DEF90020034908704874487000BF7F
:102E700000BF10BD64010020EC0000200000C8422B
:102E8000A80000200020014022484068C007C00F71
:102E9000002805D11F484068012108431D494860AA
:102EA0001C4840680321090408431A4948601A482D
:102EB000406B886000BF00BF00BF1648006817491C
:102EC000084014490860084600681549084311493C
:102ED00008601148006A48610846406B8021084339
:102EE0000C4948630F480068012108430D490860F8
:102EF00008464068012108430A4948600548406B7C
:102F000020210843034948630748084908600848E6
:102F1000486070470024004000FBFF1F3FF8F8FFA7
:102F200000000702001000405A5A341200140140F9
:102F3000070800000F20C002224908610320C002D8
:102F40008860002048602048C8600020C043C862F4
:102F5000C8130860C0111B49403108610020886017
:102F600048601A48C8600020C043C862002008605A
:102F70000846806A002088620846006A30210843BB
:102F800010494031086212480E498031086188605A
:102F9000081448600F48C8600020C043C862002081
:102FA00008603C200749C03108618860FF208130FB
:102FB00048600948C8600020C043C862002008601B
:102FC00070470000000C0040FFFF7F2965FF55554A
:102FD000E302000055555565559556652148007822
:102FE000C007C00F00281ED01F48C0690121C903B7
:102FF0000840884210D01B4800780821084000286B
:1030000003D04020174908702BE0164800780821AB
:1030100008431449087024E01248007808218843C6
:10302000104908701DE01048C0690121C90308401B
:10303000884210D10B48007808210840002803D0AE
:103040008120084908700CE00648007808210843F0
:103050000449087005E003480078082188430149C5
:103060000870704700000020000C00407D20000226
:1030700007494861886108460069042108430449FA
:103080000861084600690121084301490861704749
:1030900000E000E010B53A488078002806D001280A
:1030A00031D0022854D0032868D162E0FFF7B6F887
:1030B000344840690121C902084332494861084641
:1030C0004069491508432F49486108464069091578
:1030D00008432C49486108468069891508432949F5
:1030E0008861012028490870FEF75AFA0120274913
:1030F0000870887000202649086121488078401CAB
:103100001F4988703AE022480069C7281FD91D4826
:1031100080690121C90208431A498861084680690B
:10312000491508431749886108468069091508430D
:103130001449886108464069891508431149486166
:10314000FEF74EF80E488078401C0D49887015E057
:103150000F4800690F4988420AD901200E4988703A
:103160000E498872487606488078401C0449887069
:1031700004E0002002498870087000BF00BF10BD45
:1031800002000020400C0040000000200B00002046
:1031900020000020E70300000E000020A80000200F
:1031A000002004490860012003494870202008706D
:1031B00070470000200000200000002010B52A48C1
:1031C000407880210840002816D0FEF709F82748EB
:1031D000806901218902084324498861002024492B
:1031E00008714871234908740120C87300201E49E2
:1031F0004870214948702DE0204800687D21C900B1
:10320000884227D218484078C007C00F002821D034
:1032100000201A49086015488069FF2101310843E0
:1032200012498861FEF7FAFF1248007C002803D19A
:1032300001201049087402E000200E4908740120A2
:103240000C49C87300200D49886110200649487058
:103250000949487001200A4908700020487001207F
:103260000149087010BD000000000020400C004023
:1032700011000020EC0000200200002020000020AF
:103280006000002030B47446641E2578641CAB4294
:1032900004D3635D5B00E31830BC18471D46F8E7B4
:1032A000FDF72EFFFFF7F0FDFFF744FE0120684910
:1032B0000870FFF7DBFEC9E066484078C007C00F22
:1032C00000280FD0644800687D21C900884209D3D6
:1032D000002062490870012088706149487180208F
:1032E0005C4948705C484068132814D900205A494A
:1032F0004860FFF773FE57480078402108400028D7
:1033000001D0FFF74DFF5348007880210840002886
:1033100001D0FFF753FF4F484078102108400028A4
:103320000DD04D488069312809D900204A4988616B
:10333000FDF756FF00204749487045494870494805
:103340008078C007C00F002801D0FFF7A5F94648D4
:10335000C07EC007C00F002801D0FFF7C5FB43485F
:103360008079C007C00F002801D0FDF749FD3F4814
:10337000407EC007C00F002801D0FEF7CFFF3C48B9
:10338000C07BC007C00F002801D0FEF767F93348A3
:103390008078C007C00F002801D0FEF747FC2C48FA
:1033A0000078C007C00F002801D0FFF773FE314836
:1033B0004078C007C00F002801D0FFF7DBFC2E4883
:1033C0000078C007C00F002801D0FDF747FF2B4849
:1033D0000078C007C00F002801D0FEF7D3FCFEF72D
:1033E0002BFE1B4800781A49497840182049C97BB0
:1033F00040181A49897840181C49C97C40181B4953
:10340000497E40181D4909784018184989794018A3
:103410001B49097840181349897840180D494978A3
:1034200040180F49497840180D49C9784018154986
:10343000097840180F4949784018002801D1FEF753
:103440009DFE114811490860FDF742FE34E7000077
:103450000200002000000020200000200B000020BF
:10346000110000200E00002014010020A800002000
:10347000EC00002064010020050000201C0000205A
:1034800040010020170000205A5A34120014014055
:1034900070B501250C002D051C4310D4EC4206D458
:1034A000AC420AD4994200D070BD904270BDE9424E
:1034B00017D4EB4215D4994270BD894270BDEC42DD
:1034C00006D5AC42F9D58B4200D070BD824270BDAA
:1034D0006D004C00EC4204D25C00EC4201D28B4205
:1034E00070BD034C30B4FDF7BFFB30BC70BD00BFF6
:1034F0001900160470B501251C002D050C4310D4CD
:10350000EC4206D4AC420AD48B4200D070BD824259
:1035100070BDEB4217D4E94215D48B4270BD9B427B
:1035200070BDEC4206D5AC42F9D5994200D070BDD1
:10353000904270BD6D005C00EC4204D24C00EC4245
:1035400001D2994270BD0FB4034C0CBC03BC30B423
:10355000FDF78AFB30BC70BD1900160470B501255B
:103560000400ED074C4020D4441A01D2001B091975
:10357000C60D4B00F2B2FF2A29D01B0E2CD0000240
:103580000C02D31A2C43DC402843051910D2280A18
:1035900002D3401C6D0611D0761EF6058019FF2A55
:1035A00000DA70BDC00DC00570BD694000F07AF84A
:1035B00001200543C541521C761CE8E764089C4085
:1035C000C90161408900E7D10124A043E4E71B0E53
:1035D000440200D0034870BD002AFCD1C00FC007D0
:1035E00070BD00BF0000C07F70B5420064414B0059
:1035F0005C41120E39D01B0E38D0FF2A3CD0FF2B75
:103600003AD040024902400A490A060045184E4392
:10361000000A090AD2184843ED017F3A0104731ADF
:103620004019190C4318990F04D001215B08490770
:103630005B1A521CD80904D3401CF50301D19D0626
:1036400007D0FF2A08D2D50506D0E4072043401949
:1036500070BD0125A843F4E7002A01DCE00770BD36
:103660002402FF202043C00570BD1B0EFF2A03D09B
:10367000FF2B01D0E00770BDFF2645003606B5429E
:1036800006D84D00B54203D8D218FF2A00D0E7E78C
:10369000004870BD0000C07F70B501250400ED0733
:1036A0004C4022D4441A02D26C40001B0919C60DAA
:1036B0004B00F2B2FF2A4BD01B0E50D000020C027E
:1036C000D31A2C43DC40A843051B05D5AD0019D304
:1036D0006D08761E521E37D0F605280A01D28019D1
:1036E00070BD70416D0603D070BD6940FFF73CFFAF
:1036F0009C4009026140490001D0401E70BD012478
:10370000A04370BD6D081DD001202B0C01D12D04EC
:1037100010302B0E01D12D0208302B0F01D12D01BD
:10372000001DAB0F01D1AD00801CEB0F01D16D006E
:10373000401C6D00361A121A680AF5054019012A54
:1037400002DB70BD002070BDC036300AC00770BDFE
:103750001B0E440201D1FF2B00D1024870BD002A8C
:10376000F0D070BD0000C07F040602060002020017
:10377000040406020402060200020604040204060F
:1037800004060406000202020406060604020606F7
:103790000404040600060206000004000100000004
:1037A0000000010000000001000100000200000014
:1037B000020000000800000080807F7E7D7C7B7A14
:1037C0007978777676757473727171706F6E6E6DCD
:1037D0006C6C6B6A6A696868676666656464636373
:1037E00062616160605F5F5E5E5D5D5C5C5B5B5AF9
:1037F0005A59595858575756565555555454535366
:1038000052525251515050504F4F4F4E4E4D4D4DC0
:103810004C4C4C4B4B4B4A4A4A494949484848470B
:103820004747474646464545454444444443434349
:103830004342424242414141818283848586878856
:10384000898B8C8D8E8F919293959697999A9C9D4A
:103850009FA0A2A3A5A7A8AAACAEB0B2B3B5B7B9B2
:10386000BCBEC0C2C5C7C9CCCED1D4D7D9DCDFE27B
:10387000E6E9ECF0F3F7FAFE9838000000000020CB
:103880002000000004010000B838000020000020E3
:10389000C011000020010000000000000000000036
:1038A0000000000000000000000000000000000018
:0838B000000000000000000010
:04000005000000C136
:00000001FF
