:020000040000FA
:10000000B011002065010000690100006B010000D3
:1000100000000000000000000000000000000000E0
:100020000000000000000000000000006D01000062
:1000300000000000000000006F01000071010000DE
:1000400073010000730100007301000073010000E0
:1000500073010000730100007301000073010000D0
:1000600073010000730100007301000073010000C0
:1000700073010000730100007301000073010000B0
:1000800073010000730100007301000073010000A0
:1000900021280000730100007301000073010000BB
:1000A0007301000073010000730100007301000080
:1000B0007301000073010000F11D000073010000D6
:1000C00000F002F800F03EF80CA030C80838241800
:1000D0002D18A246671EAB4654465D46AC4201D180
:1000E00000F030F87E460F3E0FCCB6460126334274
:1000F00000D0FB1AA246AB463343184774510000A8
:1001000094510000103A02D378C878C1FAD8520747
:1001100001D330C830C101D504680C6070470000BD
:100120000023002400250026103A01D378C1FBD813
:10013000520700D330C100D50B6070471FB51FBDFB
:1001400010B510BD01F068F81146FFF7F7FF03F096
:10015000DBFF01F080F803B4FFF7F2FF03BC01F00E
:10016000B1F8000006480047FEE7FEE7FEE7FEE7BD
:10017000FEE7FEE703480449044A054B70470000C8
:10018000C1000000B0010020B0110020B009002023
:10019000B0090020002203098B422CD3030A8B42B2
:1001A00011D300239C464EE003460B433CD400226F
:1001B00043088B4231D303098B421CD3030A8B4281
:1001C00001D394463FE0C3098B4201D3CB01C01A4F
:1001D000524183098B4201D38B01C01A524143091A
:1001E0008B4201D34B01C01A524103098B4201D308
:1001F0000B01C01A5241C3088B4201D3CB00C01A75
:10020000524183088B4201D38B00C01A52414308EC
:100210008B4201D34B00C01A5241411A00D2014611
:100220005241104670475DE0CA0F00D049420310AA
:1002300000D34042534000229C4603098B422DD3F9
:10024000030A8B4212D3FC22890112BA030A8B42A1
:100250000CD3890192118B4208D3890192118B42F0
:1002600004D389013AD0921100E08909C3098B4275
:1002700001D3CB01C01A524183098B4201D38B01B8
:10028000C01A524143098B4201D34B01C01A52415B
:1002900003098B4201D30B01C01A5241C3088B42A0
:1002A00001D3CB00C01A524183088B4201D38B008B
:1002B000C01A5241D9D243088B4201D34B00C01A15
:1002C0005241411A00D20146634652415B1010462A
:1002D00001D34042002B00D54942704763465B1072
:1002E00000D3404201B50020C046C04602BD704761
:1002F00070477047F0B50C46871A9C410D46861A28
:100300009D4103D2C01BA141D21963410D0D1F0DA8
:10031000C94EEC1BAE435CD07F057F0D0026002F3D
:1003200051D02D05AC46A943DD020123ED0A1B0582
:100330001D4320231B1B24D41746E7403818714166
:100340002F46E740CC199D402818314661410C0DDD
:1003500027D161449A4013D50023401C59415200D3
:100360000ED14008400001224B005205D34207D372
:1003700005204007C14201D5B04900E0B0493046F0
:10038000F0BD6B00002A00D001229A181F23203CE8
:100390001B1B01D5002302E0E540281871410C0D1C
:1003A000D7D0012424050919C407CD0740084908FE
:1003B000E40F28436144002CD5D00024401C614147
:1003C0009A40D0D1CDE76A05520DD9D1C90FC907DE
:1003D000D5E79C4D4E00002801D0012400E0002408
:1003E00034195F00002A01D0012600E00026BE1962
:1003F000954FAC420CD8AE420AD8B44206D0012583
:100400006D05EC42BCD010461946F0BD9942FCD0B7
:1004100000203946F0BDF0B51FB40C460F46811AD6
:100420009F412546861A9D4106D20125ED076F4062
:10043000401ABC4152187B41210D1E0D8D1BAC464C
:100440007D4D8D437ED075056D0D7CD00D05AE467E
:10045000AC431B031B0B794D52429D412023664642
:100460009B1B14D31746F7403818002600907441A0
:1004700060462F460741E41900989D4028186641C0
:1004800016D4714671189A4025D5012320E093189F
:100490002A466A415200002B00D0521C1E23203EE7
:1004A0009B1B002B61DD3541EE1728186641E8D50E
:1004B000001876415B1C9A4000D3401C4B05F31892
:1004C0001524E34010D3002B52D071467118D30F7E
:1004D000C01802D3491C05B0F0BD0123DB079A42C6
:1004E000F9D140084000F6E701225205B21801D1C7
:1004F000002853D00123CC0ADB029943891E002A2D
:1005000008D1020C03D0020C0004103902E00246AC
:10051000002020390023550B05D112020823550B6A
:1005200001D152010D23550C01D112011B1DD50C17
:1005300001D192009B1C150D01D152005B1C20259E
:10054000EE1A01E02CE022E00546F5401543984004
:10055000CA1AE10769181305C918002ABBDA032073
:1005600040070818C10FC9070FE071466118B2E7CC
:10057000F10740080843711071444A000CD0012370
:100580005B059A42A7D2C90FC9070020A3E7490516
:10059000490D26D1002001E00028F4D100219AE77E
:1005A000284D6600002801D0012100E000217118CB
:1005B0005F00002A01D0012600E00026BE19224F6C
:1005C000A94210D8AE420ED8B14208D001256D051F
:1005D000E94206D01946A802414010467BE79C42FA
:1005E00001D0214677E70020394674E710B50C4664
:1005F0005C4005D50124E4076340FFF70CFF10BD04
:10060000FFF778FE10BD30B40C465C4004D50124E1
:10061000E407634030BC6DE630BCFCE670B50124F5
:10062000E40761400D465D4002D4FFF763FE70BDF4
:100630006340FFF7F0FE70BDFF0700000000F0FF11
:100640000000F07F0000E0FF0000F87FF0B5F94DFA
:100650000C091E092C402E402F468BB0A7437DD09D
:10066000B543FCD0002E7AD0002CFCD00D465D4066
:10067000ED0F2543AC1BFF25AD0464190894C5029A
:10068000440DC9022143500DDC0204430120C00780
:1006900001430443D2020191200C110C00958C46B9
:1006A000010423468B430A9161460904E24D8A43C3
:1006B0000991010A7D4449198039097805464D435D
:1006C00001266D18F605751B6943C90C640B891C5E
:1006D0004C436418B5012C1B250C2E04B4434C4329
:1006E0004D43210C691889090591009DE90701D046
:1006F0000121C90704912C4601996708CD072F43B2
:100700004C08059DE10B4D432D0C2946664675436B
:1007100002950D4645432E46029D7D1BB441009532
:100720000D465D4301942C0C2F040D465543AE46F7
:100730002D0C3D43029503947546049C2D04641BC7
:10074000049406D2029C039D641C00267541039507
:10075000029401AC70CC009F7D1B01E03EE162E1A0
:10076000B44109040095079101940599A4086143D7
:10077000090C0C464443650BE7040C46664674437B
:10078000A646640B3C43039502947446049DE4041E
:100790002C1B049406D2029C039D641C0026754108
:1007A0000395029401AC70CC009F7D1BB441019471
:1007B0000C465C430095650FE7000C465443A64683
:1007C000640F3C43039502947446049DE4002C1B83
:1007D000049406D2029C039D641C00267541039577
:1007E000029401AC70CC009F7D1BB441AE09AF06F2
:1007F000049DC900AD092F43049DA406AD060495D0
:10080000079D344369180791059DE10B4D432D0C5D
:1008100029466646754302950D4645432E46029D80
:100820007D1BB44100950D465D4301942C0C2F04B3
:100830000D465543AE462D0C3D4302950394754637
:10084000049C2D04641B049406D2029C039D641C2A
:10085000002675410395029401AC70CC009F7D1B6E
:10086000B44101948C050694079C890A611800958F
:100870000791019C0599A4086143090C0D46454365
:10088000680BEF040D46644665436C0B3C43049FC4
:10089000ED047D1BAC4602D20025641C6841009E1D
:1008A000019D371B85410846584301950C46460F6C
:1008B000C5005443600F28436546E4002C1B02D258
:1008C0000025401C6E41019D3F1AB5412846BD09D7
:1008D000800628438446A009BF064E020699A40656
:1008E00076180743079D002068410A99079019432D
:1008F0000020099B00906046FF1913434041E20F1E
:1009000064003A43A4460446D71A8C41A04203D956
:100910000120009020463A46C70F94184041624695
:10092000D20F2243644664000494009CBE466400D7
:10093000D71AA446044602978C417746002F01D16E
:10094000A04204D96046401C8446029A2046C40F47
:10095000A64694184041049A0546D20F22436446A5
:100960006400D31A8D417146002901D1A84202D9F1
:1009700028461A46641C10430122002800D0164362
:1009800061020020079B891904465C410223002C68
:1009900002DB491813466441089DCE0A2D145D19E7
:1009A0004B056705E10A2C050D1908993E43C90757
:1009B0006940002B08D0934006D30022761C514199
:1009C000002B01D1760876001C4A002D43DB15422E
:1009D00041D0AA433FD030460BB0F0BD06180D46BB
:1009E0004D41174C7642AC411AD395181C465C41D8
:1009F000134A6D42A24113D3012252054C00D44246
:100A00000AD15C00D4420BD04B4002D59202114374
:100A1000E2E749004908DFE75940C90FC90718E074
:100A200000200849D8E7054801420DD10342F7D01C
:100A3000F2E700000000FF07644A00000000F07FBA
:100A40000000E0FF0000F87F114859400143C01248
:100A500041400020C0E70123089A9B069A4205DC2A
:100A6000032252078918C90FC907B5E705225207A3
:100A70008918074A1143D2125140ADE770B51546A7
:100A80001C4602460B4628462146FFF7DFFD70BD97
:100A9000FFFFFF7F0346CA02400D10B510430A1541
:100AA00004D00124E4072043002A05DB0A4CA21AE3
:100AB00004D4D040FF2A00DD002010BD4A00002BE6
:100AC00001D0012000E00020101801225205D04280
:100AD000F2D8C817C04310BD1E0400001F22030C2B
:100AE00002D10F22000402D0030E03D004E0002044
:100AF000014670470002083A030F01D10001121F9E
:100B0000830F01D18000921E002801DB4000521E9D
:100B1000120551184205C012411810467047C10F06
:100B2000C90700D04042012292071143D6E70121B4
:100B30008907D3E7F0B58B4C0F09254689B0BD4333
:100B40007BD01D092646AE43FAD00E465E402740B4
:100B5000F60F3E43254071D024012142FBD0FF24F3
:100B6000AD19A4042D1B039501252D05DB02DB0A1D
:100B7000C9022B43C90A29431E010901040F130F9F
:100B8000050121431701880B820391432D098C46EF
:100B9000A90B1E438A039543B30B9A0396433F095F
:100BA000BA0B9403A74302962E467E430497B6469B
:100BB0004E19D7190C460196544305977E43371BAF
:100BC0007646BF1B3601B646BE0B361900967646F2
:100BD000BC043719009C01D3641C00946400002FEE
:100BE00001D001263443029E049F754366467E432E
:100BF0000496760034196E0034190094029C019E0C
:100C00001C196643751BAE46069465464519059C3E
:100C100005956C43594375460891691A0191049EE4
:100C200001465143A41B0491611A009C0791E106FF
:100C300005D061090122114302E072E06EE0610912
:100C4000089D00272C0A2D066918049D7C412A0A5C
:100C50002D066918019D6241AC0DAD026D1854411D
:100C6000079A910D920255196141029A64465843C0
:100C70005443069B059A5A43121A131B9A0E9B0162
:100C80005B187A41010B0005C3185141220A200666
:100C900044195A419A4200D2491C01204002814223
:100CA00003D315230226F64302E014230326F6435A
:100CB0002020C51AA9401746AF40DA400A43204613
:100CC0000399D8400914731819055118039A384329
:100CD000D2075140AC4009D00122944006D30022F3
:100CE000401C5141002C01D1400840001E4A934253
:100CF00012D3012203989206904207DB0520400799
:100D000009181A480143C012414004E0032040077B
:100D10000818C10FC907002009B0F0BD0020F10775
:100D2000FAE705180C464C4111486D42A04115D315
:100D300094181A465A410E48644290410ED301203D
:100D40004A004005824209D35A00824206D35940E4
:100D5000C90F084AC90700201143DDE700200649F2
:100D6000DAE700000000FF07FE070000FFFFFF7F3B
:100D70000000E0FF0000F07F0000F87F0121C905BE
:100D80000123411842001B06D3185B0E0AD0C11084
:100D90000722D206891840075242D14201D552009B
:100DA00089187047090208D50146002A03D0C10FEF
:100DB000C9070020704710467047420202D0002049
:100DC00002497047072109050143F4E70000F87F55
:100DD000F0B5FF252D04C609C209FF2704462E40A1
:100DE0000137CB093E4348402A402B400746002AA2
:100DF0006BD0002B69D0AA4267D0AB4265D00028E7
:100E000000DA32460125ED0529432C430902200270
:100E1000090AD21A4B0C7F24E31A434C000A7C4483
:100E2000E35C7D242404121914145B00A218884288
:100E300001D3521C00E0400049420C465C4324119F
:100E40005C43DB016415E318040A5C43C502200D12
:100E50000C4644436419250A5D432303EC0C0D46FC
:100E6000654300030019EB184C42A34201D35B1801
:100E7000401CD4052018002B07D05B00C91804D3F0
:100E8000401C002901D1400840003F2189048A42CA
:100E900009D3002A08DC1106090F04D003214907F1
:100EA0004018C00FC007F0BD01224100120689188A
:100EB0007F2252069142F6D205214907C84201D548
:100EC0009010F0BDFF20C005F0BD002F00DA3246C3
:100ED0001648AA4207D2AB4205D21902090E17D012
:100EE000F80FC007F0BDFF2563002D06AB42F9D80F
:100EF0004900A942F6D8AB4201D1A942F2D0A94299
:100F000001D1002101E061004908D0050843F0BD8E
:100F10001102090EFBD0FF200243D005F0BD0A46A6
:100F20000146104654E700007A4300000000C07FED
:100F30000102C21504D00123DB071943002A0ADB92
:100F40009E239A1A02D40846D0407047FF224100DF
:100F50001206914201D900207047C017C043704764
:100F60001F22030C02D10F2200041CD0030E01D15A
:100F70000002083A030F01D10001121F830F01D1B3
:100F80008000921E002801DB4000521ED20551183D
:100F9000021251181922904004D3491C002801D193
:100FA0004908490008467047C10FC90700D04042B0
:100FB000012292071143D3E701218907D0E710B539
:100FC00000F080F8006810BD10B5044600F07AF813
:100FD000046010BDF8B5224C4E00069DA6420AD80A
:100FE000A64201D1002806D15E00A64203D8A6423F
:100FF0000AD1002A08D00D24240425422CD02946E9
:10100000002000F063F8F8BD0C461C430CD4994254
:1010100002D0EFF30080F8BD904202D0EFF30080E1
:10102000F8BDEFF30080F8BD09242407E5008B42EA
:1010300006D0EFF30080A043591A06D2284304E0FB
:10104000101A05D3EFF30080A04380F30088F8BDA9
:10105000EFF30080A043F1E7009500F04FF8F8BDF2
:101060000000E0FF70B505464800440D124B00201B
:10107000002C0AD0634008D09A4206DA6642B24297
:1010800003DD12054019514170BD002C08D0002B22
:1010900009D0C90FC907002AF6DB084A114370BD01
:1010A000C90FC90770BD28460A03104302D00020AB
:1010B000034970BD284670BDFF0700000000F07FA7
:1010C0000000F87F004870474C010020C80212D58C
:1010D0004803400F002804D0C803C04301218840C2
:1010E0007047EFF30080000100090321090708435E
:1010F00080F30088704700207047000010B5002082
:101100000249029A00F0AFF810BD00000000F87F1D
:10111000F0B53D4B02460C461C400020002C63D02D
:101120003A4D8B4366D000296BDB0B0D1D05A9439F
:1011300001252D0529430124FD33E34001D39218F5
:101140004941FF3381339C468B02940D0121234397
:1011500089074C42920200271B198C105D1A04D497
:101160002D1B02D42B466500491992185B41640877
:10117000F4D15C1A08D40125ED07EE175519744116
:1011800002D42A462346491C94185B410122920747
:101190001D46E61B8D4106D4B61A854103D42B4665
:1011A000550034467F1924195B415208802AEFD13B
:1011B000234300D0022338460A22D04001D3012223
:1011C00013438A0510436246890A12058918002BC9
:1011D00009D00122D34002D30022401C5141002BF0
:1011E00001D140084000F0BD0B03134307D0C90FE5
:1011F000C907F0BD0803104303D1002901DB1046E5
:10120000F0BD00202946F0BD0000F07F0000F87F0F
:10121000004870474C0100207546FFF7F9FFAE46C5
:10122000050069465346C008C000854618B020B581
:10123000FEF7A0FF60BC00274908B6460026C0C5DF
:10124000C0C5C0C5C0C5C0C5C0C5C0C5C0C5403D7E
:1012500049008D46704710B50446C046C04620463A
:10126000FEF779FF10BD10B50C461107090F0929CB
:1012700004D00A290AD008290CD104E0114608201C
:10128000FFF724FF06E0510606D501E0510601D51F
:101290000120C007214610BDD10607D5010109096B
:1012A000CC084907000E0006044309E0410F200264
:1012B0004907000A0143200E00061D22D1410143C7
:1012C0000846E7E701491820ABBEFEE7260002000A
:1012D000704700007F480079002806D0012832D0EE
:1012E00002287DD003282DD1CDE07B480069012163
:1012F0000843794908617948806B89150843774923
:1013000088637748C069E02188437549C861084609
:10131000C069202108437249C8610846006A7149C2
:1013200008406F4908620846006AB1210904084371
:101330006B49086200206C49C86066480079401C0F
:1013400064490871C4E06848C068092858D96448ED
:10135000006901210843624908610846C06A012109
:10136000090408435E49C8625D4840300068FF21B7
:10137000F13188435A4940310860084600681F210E
:1013800049028843564940310860084600684914BC
:10139000084353494031086051480069012109045C
:1013A00008434F4908614E4840304068FF21F13101
:1013B00088434B4940314860084640681F21490234
:1013C0008843474940314860084640681121490236
:1013D000084343494031486041480069012100E029
:1013E0000FE0490408433E4908610846406903216B
:1013F00008433B49486137480079401C354908712A
:1014000066E00320364909680140814201D101218B
:1014100000E00021002935D03148803000682D4996
:1014200008802F488030406848802D48C06A400BB3
:1014300040032B49C86227490988264A52888918DF
:101440002A4A881AC10F09184910254AD26A11433D
:10145000234AD1621046C06A01210904884311461B
:10146000C8620846006940084000086108460069F3
:101470000321090488431146086116480079401C7D
:101480001449087124E00F2000030078184988717E
:1014900008468079012802D11649087013E001201E
:1014A0001549887015490870134908701449487423
:1014B0000F488079FF2803D100200F49087102E00E
:1014C00001200D490871002002490871887100BF90
:1014D00000BF7047880000204020004000240040EA
:1014E000005C0140FFFF00FE20000020FF0F000015
:1014F0006000002002000020050000201D000020E8
:10150000D40000200B4800694008400009490861E8
:101510000948806B8915884307498863074808494B
:10152000C8610520000208620120054940310861B8
:10153000704700004020004000240040200130009F
:10154000005C01401248006901210843104908610C
:101550001048806B891508430E4988630E48C0699E
:10156000E02188430C49C8610846C069202108432E
:101570000949C861002008620846006A0749084313
:1015800005490862012004494031086170470000A4
:101590004020004000240040005C0140040F8D000A
:1015A00070B50246FF20521C002315E015786840F4
:1015B00000240CE080250540002D04D04500312694
:1015C0007540E8B201E04506280E651CECB2082C17
:1015D000F0DB521C5D1CEBB28B42E7DB70BD000000
:1015E0000949096901221204114000290BD0002089
:1015F00000BF8100054A5158491C8200034B995095
:10160000401C0C28F5D3704700E000E020000020CB
:1016100010B500BFEFF308821146CA04510D002037
:1016200000BF00228300012464071B191A60401CBC
:101630008842F6D310BD00001248C0681249084322
:101640001049C860002008601048C06801210905E1
:1016500088430E49C8600D484038C06B89058843EF
:101660000A494039C8630A48C0680F218905884380
:101670000749C8600846C068052189050843044930
:10168000C8607047001C01407F3F000040240040BC
:10169000000C004000201349C860086148610860E0
:1016A00088611148406B400840000F4948630E486C
:1016B00040304068C91488430B49403148600846AF
:1016C000C0680221884308494031C86014200028BE
:1016D00005DBC206D20E01219140044A116000BF11
:1016E00070470000008801400024004080E100E0D5
:1016F00000200D4908604860C8628862486108623D
:101700004863086308610849403148600748006839
:1017100010218843054908600846C06809148843B9
:101720000249C8607047000000800140402400402A
:1017300026484078002804D001282CD0022843D124
:101740003AE023480078002824D10F2000030078D5
:10175000204988710F200003808848800F200003F3
:10176000008988800F200003C06808620846006A6C
:10177000401C08620F200003017C164820300171D4
:101780000020134988730120087010484078401CDD
:101790000E49487018E00E48007800280BD101204F
:1017A0000B4988730520887001200870074840782D
:1017B000401C0649487007E005480078002802D11F
:1017C00002494870087000BF00BF70470A0000203F
:1017D000180100206000002070B5A1484078030087
:1017E00002F0EEFB08050E2447A4DCF7F50D0020FF
:1017F0009C4948629A484078401C994948702DE1BC
:101800009848406A984988420FD9984840780028FB
:101810000BD10120954920398872012193484170EC
:101820008F484078401C8E49487017E18F484078B7
:1018300000281DD18E490868FFF7A0FA044600224F
:101840008C4B03F0D7FA10D20120884920398874D4
:1018500001218648417082484078401C8049487088
:101860000846C078401CC87002E000207C494870DF
:10187000F4E07E484078002857D179480079002864
:101880002BD17D4988710846418878482038008AE4
:101890000818794948807248C078032806DA002081
:1018A0007049486207206E4948703EE07249488896
:1018B0000321FEF779FC7049488000206849C87010
:1018C00001206E49887302208870012008706448E6
:1018D0004078401C6249487027E067488188634827
:1018E0002038008A0818644988805D48C078032839
:1018F00006DA00205B49486207205949487014E025
:101900000F20000380885C49488088880321FEF707
:101910004BFC594988800020584988730120087081
:101920004F484078801C4E49487097E053480078F3
:10193000002832D10F20000380884F4948804B484F
:101940002038008A498888421DD101204A49087000
:101950004B4880690121C90208434949886108460A
:101960008069091508434649886108468069491518
:1019700008434349886164203D49888000200874F9
:101980000120487405E000203B49087001203D49D2
:10199000087000203249487008705FE037480078CE
:1019A000002813D1344908620321334820300171E3
:1019B00001203149887131498873052088700120E0
:1019C000087027484078401C2549487046E03CE0B4
:1019D000FFE72A480078002836D1274880880F2161
:1019E00009038968884224D1234840880F210903CC
:1019F000496888421DD101201F49487020488069EC
:101A00000121C90208431E498861084680690915F9
:101A100008431B49886108468069491508431849ED
:101A2000886164201249888000200874012048746D
:101A300005E000201049487001201249087000207C
:101A4000074948700870887008E00648406A0E49E7
:101A5000884202D902200249487000BF00BF70BD11
:101A6000050000202000002087130000A8000020AF
:101A7000D400002000000C4060000020180100206D
:101A8000400C00401D000020E703000010B5404856
:101A90004078030002F094FA0705172B394F5C6A6F
:101AA000790001F087F83B4840690121C9020843E9
:101AB0003849486100203849086235484078401C60
:101AC0003349487061E03448006A09280ED9FFF7AD
:101AD0000FFE2F488078002803D006202C4948703C
:101AE00004E02B484078401C294948704DE02A48C2
:101AF000006AFF213631884206D901F05BF824489C
:101B00004078401C224948703FE02348006AFF218A
:101B1000403188420ED9FFF7EBFD1D48C078002800
:101B200003D006201A49487004E019484078401C48
:101B30001749487029E01848006A1849884206D9B0
:101B400001F038F812484078401C114948701CE0F8
:101B50001148006A11490A31884206D9FFF7C8FDC9
:101B60000B484078401C0A4948700EE009488069DB
:101B70000121C902084307498861002004494870CF
:101B8000074988720249087000BF00BF10BD0000FD
:101B900018000020400C0040200000206B020000D4
:101BA0005400002000B50020874949780B0002F05E
:101BB00007FA06046DB4D3DDF06C8449896B2022EA
:101BC0001143824A916381494031C968120511432A
:101BD0007E4A4032D1607C49897B002913D17C49FF
:101BE0004969032212021143794A51611146496938
:101BF00002229143764A51611146496901221143FB
:101C0000734A51610BE07249496949084900704AB9
:101C1000516111464969022211436D4A516100BF69
:101C2000EFF31081084672B66749897B002911D10C
:101C300067498969674A1143654A91611146896913
:101C4000654A1143624A91615F494978C91C5E4AFD
:101C5000517010E05E498969604A11435C4A9161A4
:101C6000114689695E4A1143594A9161564949783A
:101C7000491C554A517000BF80F3108800BF544979
:101C8000096A584A1143524A11629BE05049496916
:101C9000490849004E4A51611146496902221143DF
:101CA0004B4A516148498978052905D14E4909793E
:101CB0000F22120311612AE043498978042906D1D1
:101CC00049492039096A0F221203D1601FE03E49B9
:101CD0008978032906D14449203989880F221203C3
:101CE000916014E038498978022906D13E492039AB
:101CF00049880F221203516009E03349897801298C
:101D000005D13949203989790F22120311602E49F2
:101D10004978491C2C4A517054E02D49096A022225
:101D20001140002917D02A49096A1143284A116233
:101D300025498978012909DD23498978491E224AE4
:101D4000917011464978491E517004E01E49497846
:101D5000C91C1D4A517035E024490F22120311603D
:101D600019494978491C184A51702BE01849096AE9
:101D7000C907C90F00290AD01549096A0122114370
:101D8000134A116210494978491C0F4A517019E0F1
:101D9000FFE70021C9430E4A91610C494031C968EF
:101DA00092049143094A4032D1600849896B20224C
:101DB0009143064A91630021034A51709170D1709A
:101DC000117000BF00BF00BD1801002000240040BA
:101DD0000010004096969696EAEAEAEAA5A5A5A51F
:101DE000F1F1F1F10107000080000020CDAB3412C9
:101DF00010B508200A4949690140814201D10121F9
:101E000000E0002100290AD008200549486100BFF0
:101E100001F0D6FEFFF73EFC01200249487010BDDC
:101E2000C00D004002000020C0202A490860802028
:101E3000C0438860082008612748006801214906DE
:101E400008432549086024484030C06849050843D4
:101E500021494031C86008464068090608431E49C8
:101E6000403148601B480068C02108431949086098
:101E70000846006908210843164908610846806839
:101E80008021C943084313498860084640690821F6
:101E90000843104948610120800710490860104933
:101EA00008600F488038032109024018C069FF21EB
:101EB000090488430121C9054018094980390322D2
:101EC00012028918C861012080070549803908601D
:101ED00070470000C00D00400024004080E200E098
:101EE00080E100E070B5F748007C030002F068F87C
:101EF0000A06148EE3F8F7F6F5F4F31300F0E0FDAC
:101F00000020F14948628862C8620863ED48007C9D
:101F1000401CEC490874C3E2EA488088EB498842D7
:101F200001DD084601E0E7488088E6498880888826
:101F30006421FEF739F9E349C881E348406AC98959
:101F40008900E34A515C09010843DF4948620846B9
:101F5000806ADC49C98989008918497809010843E0
:101F6000D94988620846C06AD649C9898900891852
:101F7000897809010843D449C8620846006BD149F1
:101F8000C98989008918C97809010843CE490863BD
:101F9000CC4988880A21FEF707F984B20A21204635
:101FA000FEF702F988B2C749C881C748406AC989A3
:101FB0008900C74A515C89000843C3494862084602
:101FC000806AC049C989890089184978890008430D
:101FD000BD4988620846C06ABA49C989890089181A
:101FE000897889000843B849C8620846006BB5493A
:101FF000C98989008918C97889000843B2490863EA
:10200000B048007C401CAF49087449E2AD4988885B
:102010000A21FEF7C9F888B2AA49C881AA48406ACD
:10202000C9898900AA4A515C0843A7494862084601
:10203000806AA449C9898900891849780843A24956
:1020400088620846C06A9F49C989890089188978C9
:1020500008439D49C8620846006B9A49C9898900AE
:102060008918C9780843984908630846406A1146A8
:102070004031097A0843944948620846806A11460B
:10208000483149780843904988620846C06A114639
:102090004831897808438C49C8620846006B11466C
:1020A0004831C9780843884908638648007C401C49
:1020B00084490874F4E183490868FEF75FFE04462A
:1020C000844A854B02F0C8FE0BD87E48007C401C39
:1020D0007C4908742BE034E1C6E09EE076E04EE0F7
:1020E00026E078490868FEF749FE04467B4A7C4BA7
:1020F00002F0B2FE05D87348007C801C7149087458
:1021000015E070490868FEF739FE0446734A5242EA
:10211000744B02F0A1FE05D86A48007CC01C6949D6
:10212000087404E06748007C001D66490874B7E144
:102130006548406A66492031097D090708436249BC
:1021400048620846806A62493431497808435E49EA
:1021500088620846C06A5E493431897808435A4922
:10216000C8620846006B5A493431C9780843564959
:1021700008635448007C401C5249087490E152485E
:10218000406A53492031097E08434F494862084656
:10219000806A4F493831497808434B49886208467C
:1021A000C06A4B4938318978090708434649C862F3
:1021B0000846006B46493831C978084342490863EC
:1021C0004048007C401C3F49087469E13E48406A31
:1021D0003F492031097F08433B4948620846806AED
:1021E0003B493C3149780843374988620846C06A10
:1021F00037493C31897808433349C8620846006B47
:1022000033493C31C978090708432F4908632D48F1
:10221000007C401C2B49087442E12B48406A2C4941
:10222000403109780843284948620846806A2849AD
:102230004031497809070843234988620846C06A43
:1022400023494031897808431F49C8620846006B1A
:102250001F494031C97808431B4908631948007C6D
:10226000401C184908741BE11648807C00283BD1AB
:10227000144840891349C88108464089888112481A
:10228000406A134940310979090708430E494862F9
:102290000846806A0E494431497808430A498862F1
:1022A0000846C06A0A494431897808430649C86229
:1022B0000846006B06494431C9780843024908635F
:1022C00039E00000D4000020000C0140E7030000CA
:1022D000CC5000006666666666660640CDCCCCCC07
:1022E000CCCC0440333303406E4800896D49C8812B
:1022F0000846008988816C48406A6C49097B090757
:102300000843694948620846806A68490C3149783F
:102310000843654988620846C06A64490C31897877
:1023200008436149C8620846006B60490C31C978AE
:1023300008435D4908635B48007C401C59490874A8
:10234000AEE058498989574AD289881AFEF7E7FBD7
:1023500004460022564B02F07FFD03D85148C08945
:10236000401C01E04F48C0894E49888188890A2174
:10237000FDF71AFF84B20A212046FDF715FF88B247
:102380004849C8810846C089800048494039085CEE
:102390000221084080074349C9898900434A403ADD
:1023A000515C891040184049496A08433E494862D7
:1023B0003C48C089800011464018407802210840FE
:1023C00080073849C98989008918497889104018D7
:1023D0003549896A0843344988623248C089800097
:1023E0001146401880780221084080072D49C9898C
:1023F000890089188978891040182B49C96A0843CF
:102400002949C8622748C089800011464018C07811
:102410000221084080072349C98989008918C978A1
:10242000891040182049096B08431F4908631D495A
:1024300088890A21FDF7B8FE88B21A49C8811A486E
:10244000406AC9898900194A403A515C0907084322
:10245000154948620846806A1249C9898900891865
:10246000497809070843104988620846C06A0D493F
:10247000C989890089188978090708430A49C86207
:102480000846006B0749C98989008918C978090776
:10249000084305490863002002494874087400BFD6
:1024A00000BF70BDD4000020000C01400C510000A2
:1024B0000000E03F00B552484078002806D00128CF
:1024C0001CD002284DD0032817D192E000F0F8FA72
:1024D00000204C4948628862C86208634848007816
:1024E000012805D146484078801C4549487004E0E1
:1024F00043484078401C424948707FE0002028E073
:102500004149097C420091403E4A526A11433D4A8A
:1025100051623D491031497842009140394A926AEE
:102520001143384A9162384910318978420091400C
:10253000344AD26A1143334AD16233491031C978DF
:10254000420091402F4A126B11432E4A1163411CE5
:10255000C8B20328D4DB2A484078801C2849487038
:102560004CE02848406A2849097A890008432549EF
:1025700048620846806A244908314978890008433E
:10258000204988620846C06A1F4908318978890055
:1025900008431C49C8620846006B1B490831C978CA
:1025A00089000843174908630846406A1649097BB1
:1025B0000843144948620846806A13490C31497837
:1025C0000843104988620846C06A0F490C3189786F
:1025D00008430C49C8620846006B0B490C31C978A6
:1025E00008430849086306484078401C044948707D
:1025F00004E0002002498870487000BF00BF00BDA1
:102600000C000020000C0140EC5000008048407895
:10261000002804D0012877D0022876D1EEE07D484A
:102620000078002819D10F2000030068401C002802
:1026300013D1794840690121C902084376494861AC
:10264000084680694915084373498861084640690E
:1026500009150843704948615FE06E480078012819
:1026600018D10F2000030068002813D16A48406980
:102670000121C90208436849486108464069491573
:10268000084365494861084680690915084362495D
:10269000886142E05F484078002818D10F2000038D
:1026A0000068002813D15C484069012149020843B1
:1026B0005949486108464069091508435649486127
:1026C00008468069C91408435349886125E0514888
:1026D000407801281AD10F2000030068012815D185
:1026E0004D4840690121490208434B494861084669
:1026F0004069091508434849486108468069C9147A
:1027000008434549886108E010E07FE0424840699D
:102710000121890208434049486100203F498862FD
:102720003B484078401C3A4948706FE03B48806A1B
:10273000632862D93748007800280DD10F200003A4
:102740000068401C002807D13348806901218902B4
:102750000843314988614BE02E480078012818D1A0
:102760000F2000030068002813D12B484069012185
:10277000C902084328494861084680694915084349
:10278000254988610846406909150843224948617E
:102790002EE02048407800280CD10F20000300686C
:1027A000002807D11C4880690121890208431A4981
:1027B00088611DE017484078012812D10F200003DE
:1027C000006801280DD1144880690121890208435D
:1027D0001149886108464069C91408430E49486197
:1027E00006E00D4840690121890208430A49486111
:1027F00007484078401C0649487007E00748806A4F
:10280000C72802D900200249487000BF00BF7047A6
:102810001D00002060000020400C0040200000202F
:1028200010B500BF184840694021084080090028C1
:1028300028D000BF40201449486100BF01F0C0F912
:10284000FEF728FF0F200003006801281AD10F4867
:102850008078401C0D49887008460079401C08713A
:1028600008468079401C88710846C079401CC871B0
:1028700008460089401C08810846807A401C8872FE
:102880000120487010BD0000008801405400002065
:1028900033488078032813DD32484069012149021A
:1028A00008433049486101202F49887000202C4995
:1028B000887001202D49887401212C4820304170F6
:1028C00027480079062809DD01202849887201215E
:1028D0002648203041700020214908712048407965
:1028E0001E2807DD0020214988720120C8760020BB
:1028F0001B4948711A4880790A2809DD1C488078EC
:10290000002805D001201A49487000201449887118
:102910001348807A04280EDD16480079002807D174
:1029200014488078002803D11248C078002802D0CB
:102930000120104908700A48407801280ED1084843
:10294000007800280AD007484069FF210131084378
:10295000044948610020024908704870704700002F
:1029600054000020400C00400F0000208800002090
:10297000120000201800002010B52448007800281C
:1029800006D0012816D0022825D003283CD130E0FB
:102990001F4840690121890208431D49486100F030
:1029A00009F900201B49486118480078401C174964
:1029B000087029E01748406909280BD91448806934
:1029C0000121890208431249886110480078401C9F
:1029D0000E49087018E00F484069FF21F431884221
:1029E00006D9FEF785FE09480078401C07490870A3
:1029F0000AE0084840690849884204D90020034990
:102A000008700449486100BF00BF10BD12000020DB
:102A1000400C004020000020E70300002148C0696E
:102A2000042188431F49C8611F48C06B0121090761
:102A300008431D49C8631C4840304068032109040D
:102A400088431949403148600846C068012109059A
:102A5000084315494031C8601448154908611548B4
:102A60004861012008600020486088600846C0680E
:102A7000114908430E49C8601048C0680F218905F4
:102A800088430E49C8600846C0680521C905084347
:102A90000A49C8600846006A0F218905884307492A
:102AA000086270470028004000240040C800C800A9
:102AB000001C0140640008007F3F0000000C004043
:102AC0000F48C0690121890788430D49C8610D4835
:102AD000406B0121490608430A4948630A480B49EB
:102AE00008604020886057204002C860002048618C
:102AF0000F200649403108610548486170470000D1
:102B00000028004000240040398A0002000C0140E7
:102B10007F0000F02448406B0121084322494863AC
:102B2000214840304068C91408431F49403148607B
:102B30000846C068022108431B494031C8601B4851
:102B400000680321890208431849086005204003F2
:102B5000C8600846006940210843144908610846D6
:102B6000406940210843114948610120000510498E
:102B700008600F4880380321090240184069000AA4
:102B8000000240300A498039032212028918486144
:102B90000120000506498039086004488069012148
:102BA00008430249886170470024004000880140C2
:102BB00080E100E0264800681021084324490860AD
:102BC0000846C068091408432149C86021482249C1
:102BD000C86208460068802108431F49086008460B
:102BE000806A886208464069012108431A494861A1
:102BF000002008620846406803210902084316497C
:102C00004860084680696021084313498861084686
:102C1000006A0521084310490862FF201C30486300
:102C200008460069012108430B4908610020086338
:102C300008460068012108430749086006484030FB
:102C400040680121C9030843034940314860704787
:102C500040240040350200000080014010B52848A3
:102C60008069FF21013108432549886101202549F8
:102C7000087025480079002806D0012816D00228BF
:102C800025D0032839D12EE01D4840690121890251
:102C900008431B494861FFF78DFF00201B4948612D
:102CA00019480079401C1849087126E01748406906
:102CB00095280BD9124880690121890208431049DF
:102CC000886111480079401C0F49087115E00F48D0
:102CD0004069C72806D9FEF70BFD0B480079401C58
:102CE0000949087109E009484069F92804D9002018
:102CF000054908710549486100BF00BF10BD0000CB
:102D0000400C004054000020120000202000002051
:102D100010B53A480078030001F052F9060416276E
:102D200034485B6D364840690121890208433449C3
:102D30004861FFF73FFF0020324948612F48007883
:102D4000401C2E49087056E02E48406909280BD9CE
:102D50002B48806901218902084329498861274855
:102D60000078401C2549087045E0264840692649FE
:102D7000884206D9FEF7BCFC20480078401C1F4959
:102D8000087038E01F484069204988420DD9FFF794
:102D900011FF1B4840690121890208431849486115
:102DA00016480078401C1549087024E01548406911
:102DB00016490A3188420BD91148806901218902DC
:102DC00008430F4988610D480078401C0B49087082
:102DD00011E00C4840690E4988420BD9FEF788FC87
:102DE000002006490870074948610120034988709E
:102DF0000020487000BF00BF10BD0000120000207E
:102E0000400C004020000020E7030000DB0500002C
:102E1000C309000059484078002802D0012856D143
:102E200056E0574880880F2809DA00205349087176
:102E30008871087288720873524988702EE0504871
:102E40008088182805DA4D480079401C4B490871E4
:102E500024E04B488088322805DA48488079401CB5
:102E6000464988711AE046488088642805DA434854
:102E7000007A401C4149087210E041488088FF21D7
:102E80002D31884205DA3D48807A401C3B498872E2
:102E900004E03A48007B401C384908733748C07842
:102EA000401C3649C87008464079401C48710846A5
:102EB000C079401CC8710846407A401C48720846D8
:102EC000C07A401CC87208464078401C487053E0E5
:102ED0002A48C07A01280ADD2848007B012806DD3F
:102EE00001202849C870002024490873C87223486B
:102EF000407A1D280ADD2148807A1D2806DD012040
:102F00002049C87000201D49887248721B48C0794A
:102F100059280ADD1948007A592806DD0120194987
:102F2000C870002015490872C871144840791128EA
:102F30000CDD12488079112808DD01201149487004
:102F40000020114988710D49887148710B48C0787B
:102F500023280CDD09480079232808DD01200949D0
:102F6000487000200849887104490871C870002021
:102F700002490870487000BF00BF70472801002058
:102F8000D40000201200002054000020F0B591B0C1
:102F9000FE480078030001F013F809062956A6D070
:102FA000FCFBFAF92800F9482038807A012808D17A
:102FB000F6482038807C012803D10220F3492039CB
:102FC0008874F2482038807A002808D1EF482038E9
:102FD000807C022803D10120EC4920398874EB4819
:102FE0000078401CC1B2E948017037E2FEF7AAFA46
:102FF000E6482038807A012806D1E5484069FF215B
:1030000001310843E2494861E0482038807C0128CA
:103010000FD1E048806B012189020843DD498863B4
:103020000020DD4908620846006A01210843DA49A8
:1030300008620020D949C860D4480078401CC1B259
:10304000D24801700AE2D548C06809284AD9D44854
:10305000006901210843D2490861D248C06B1021A0
:103060000843D049C863C9482038807A012810D164
:1030700021200002CA49486308460068102108431D
:10308000C749086008460069012109050843C44989
:103090000861BE482038807C012817D10520C00275
:1030A000BF4948630846006810210843BC490860CE
:1030B000084600693F2109048843B9490861084668
:1030C0000069012109050843B5490861B448406910
:1030D00010210843B2494861AC480078401CC1B295
:1030E000AA480170BAE1AE480068C006C00F0028C7
:1030F00022D0A6482038807A01280CD1A8488030F8
:1031000000694004000CA149203908810889FDF7B5
:1031100053FFA54908609D482038807C012805D1CF
:103120009F48803000699949203988819748007804
:10313000401CC1B29548017090E199480068C006F2
:10314000C00F00283AD09648803000698F49203956
:10315000C8830846807A012825D1C88BFDF72CFF4B
:103160000446914908682146FDF732FE8E49086001
:103170000868FDF703FE04468C4A8D4B01F03AFEC9
:1031800008D201208B498870087006E04BE125E1E8
:10319000E2E014E00020874988707C480078801CB9
:1031A000C1B27A48017079482038807C012805D165
:1031B00076480078401CC1B2744801704EE17848EE
:1031C0000068C006C00F00287ED0754880300069B6
:1031D00081B26E482038C18101468A89C989501858
:1031E000C10F0918C9030A0C684920390A820F2047
:1031F00000030068012868D10F21090389680F22A4
:1032000012035268881A002801DB014600E041429F
:10321000322903DC00206449888093E0624880887A
:103220000F210903896888422ED80F210903896874
:103230000F2212035268881AFDF779FC0D910C9049
:1032400052492039098A0F2212035268881AFDF761
:103250006EFC06460022584BFDF76CFC04460D9BA5
:103260000C9AFDF7F3F90F910E90FDF713FC4E4900
:10327000888008468088002802DD0846808800E0B3
:103280000020494988805DE00F21090389680F22E9
:1032900012035268881AFDF74AFC099108903B49CD
:1032A0002039C88BFDF743FC384A203A0591049039
:1032B000128A0F231B039B68D01A344A203AD18B01
:1032C000FCF768FF019001E045E03EE0FDF72FFCD0
:1032D00004463A4A3A4B01F06BF806460022394B55
:1032E000FDF728FC03910290059B049AFDF722FC50
:1032F00007910690099B089AFDF7A8F90D910C908B
:1033000022492039C88BFDF757FE05461F49203951
:10331000098A0F2212035268881AFDF74DFE0646ED
:103320002946FDF755FD0446FDF728FD0B910A904F
:103330000D9B0C9AFDF767F90F910E90FDF7AAFB14
:103340001949888001202049087010480078401CE5
:10335000C1B20E48017081E01148006A0020104996
:103360000862084600690121090588430C49086183
:10337000012048630B48C06B102188430949C8638A
:10338000074800694008400005491FE0A8000020E8
:10339000800C004000240040005801402000002024
:1033A000005C014000200040D40000203333333360
:1033B0003333034018000020000059409A9999992E
:1033C0009999F93F00003140280100200861254803
:1033D0000078401CC1B2234801703FE0FEF792F82C
:1033E00020482038807A01280BD11F488069FF21AE
:1033F000013108431C49886100201A49203988722C
:103400000AE018482038807C012805D1002017499F
:10341000086214492039887412480078401CC1B2EF
:10342000104801701AE00F482038807C002811D124
:103430000C482038807A00280CD10F200003006847
:10344000401C002801D10A498880002105480170EC
:10345000417002E000210348017000BF00BF11B0BD
:10346000F0BD0000A8000020800C00400058014082
:10347000D4000020F8B5FA484078030000F0A0FD21
:10348000110A1C313E717B90B7C1CDE2FDFCFBFA05
:10349000F9F81B00FFF7C2FAF248406901218902DE
:1034A0000843F04948610020EF498860EC484078C3
:1034B000401CEB494870F8E1EB48806831280FD98F
:1034C0000020E749087008464078401C4870E548ED
:1034D00040388069012149020843E2494039886146
:1034E000E3E17120E14908730220C8750120C87624
:1034F000DB484078401CDA494870D6E1DB48C07EA2
:103500008021084000282BD0D848C07E40210840A8
:10351000002814D0D2480078401CD14908700846D1
:103520000078032802DB1020487019E00020CE4903
:103530008860CB484078401CC949487010E0CB48AF
:10354000407B08210840002803D00920C449487066
:1035500006E00020C249087008464078801C487088
:10356000A3E1C1488068002804D0BD484078801E8F
:10357000BB49487099E17020BC490873BE21BB4823
:103580004173082181730021C1730420B749C875B4
:103590000120C876B2484078401CB149487084E1A7
:1035A000B248C07E8021084000281FD0AF48C07EAE
:1035B00040210840002811D0A9480078401CA849A3
:1035C000087008460078032802DB102048700AE0E3
:1035D000A3484078401CA249487004E0A0484078C5
:1035E000801C9F49487000209F4988605DE19E488B
:1035F0008068002804D09A484078801E9849487016
:1036000053E199488068092806D900209449087038
:1036100008464078401C487047E170209349087381
:10362000AC2192484173332181730021C17304207E
:103630008E49C8750120C87689484078401C884961
:10364000487032E18948C07E80210840002826D099
:103650008648C07E40210840002818D08048007865
:10366000401C7F49087008460078032809DB05E004
:10367000E5E0DAE03BE029E01CE011E010204870D2
:103680000AE077484078401C7549487004E0744867
:103690004078801C7249487000207349886004E1BA
:1036A00071488068002804D06D484078801E6C49BD
:1036B0004870FAE06C488068592806D900206849AB
:1036C000087008464078401C4870EEE07120674959
:1036D0000873FF216548417308206449C8750120BB
:1036E000C8765F484078401C5D494870DDE05F481F
:1036F000C07E80210840002812D05C48C07E402156
:103700000840002816D056480078401C54490870DC
:1037100008460078032804DB08464078801C48707F
:1037200082E00020504988604D484078401C4C4958
:10373000487079E04D48407B8021084000286BD1DB
:1037400006214A480C30FDF72BFF4849C97C8842C6
:103750005CD100204549086008460068897B084321
:1037600000024249086008460068C97B084300021D
:103770003E49086008460068097C08433B490860E8
:1037800008460068000908600868FDF715FC064651
:103790009321C905FDF71CFB0546354901F0D6FB11
:1037A0000446FDF7C5FB3349088100202F494860D6
:1037B00008464068097C084300022C4948600846D6
:1037C0004068497C08430002284948600846406830
:1037D000897C084325494860084640680003000B7F
:1037E00048604868FDF7E8FB07469321C905FDF7E7
:1037F000EFFA0646204901F0A9FB05461F4901F0F2
:10380000FDFB0446FDF794FB1A49488114484078B3
:10381000801C1349487007E0002013498860104855
:103820004078401C0E4948703FE00F4880680128EE
:1038300004D90B484078801E0949487035E00B4890
:1038400040680A49096888421AD108480068002877
:1038500016D101200249487000200349886023E006
:103860000F000020800C004020000020FC00002001
:103870000000C842D4000020000048430000484235
:103880000B48806901218902084309498861FDF7D5
:10389000D3FE00200749487088700749C876074959
:1038A000887001200649487400BF00BFF8BD0000C1
:1038B000800C00400F000020FC000020540000207D
:1038C000D40000201848007F002802D0012828D109
:1038D0000FE0164840690121C903084313494861B4
:1038E00000201349C8611048007F401C0E4908772A
:1038F00017E00F48C069092812D90C4880690121D6
:10390000C903084309498861002007490877012055
:103910008872012104482030417000200249C87695
:1039200000BF00BF7047000088000020400C00402E
:103930002000002000B59F48807E030000F040FB7F
:103940000805214657B4D1FDFC209A48C07D0B28BC
:1039500013DC9948C068994908439749C8600846EC
:103960004068012108439449486000209149087645
:103970000846807E401C887602E080208D49C8760B
:1039800015E18D484068C007C00F00281DD1894847
:10399000007BC007C00F002809D187484068082174
:1039A00088438549486000208249487608E082487B
:1039B0004068082108438049486001207D494876D5
:1039C0007C48807E401C7B498876F0E07948017E07
:1039D000007E401C774A107610460C30405C7649D9
:1039E00008621046807E401C11468876DFE07248EF
:1039F000C06802210840002846D06E48407E00285A
:103A00001ED16D48C0680821084000280FD16948C0
:103A1000007E6849C97D884205DA6648807E401E7E
:103A20006449887629E006206249887625E0614865
:103A3000C07E402108435F49C876062088761CE096
:103A40005D48C0680821084000280ED15948017E11
:103A5000C07D401E814202D100205649487655481B
:103A6000807E401C5349887607E05248C07E402142
:103A700008435049C876062088764F48C06802211E
:103A800008434D49C8600EE04B48C068FF21013132
:103A90000840002807D04748C07E402108434549D8
:103AA000C8760620887682E04348406808210843AB
:103AB000414948603F48407E002806D1084640689A
:103AC000102108433C49486005E03B48406810210C
:103AD0008843394948603748807E401C354988769C
:103AE00065E03548C068C007C00F00282FD03248B5
:103AF000C069C1B22F48027E007E401C2D4B187653
:103B000018460C3081542C48C068012108432A49CA
:103B1000C8601846007E1946C97D884211DA1846E9
:103B2000017EC07D401E814202D1002019464876A8
:103B30002048807E401E01E025E018E01D4988767F
:103B400014E01C48807E401C1A4988760EE01A4812
:103B5000C068FF2101310840002807D01548C07E09
:103B6000402108431349C876062088761FE0124892
:103B7000406804210843104948600E48807E401C7C
:103B80000C49887613E00C4840680421084000285E
:103B90000CD1084988760846C07E40084000C876A7
:103BA0000846C07E802108430249C87600BF00BF96
:103BB00000BD0000FC000020001C01407F3F000011
:103BC00021484068C007C00F002805D11E48406842
:103BD000012108431C4948601B484068032109042F
:103BE00008431949486019480068886000BF00BF51
:103BF00000BF154800681649084013490860084688
:103C0000006814490843104908600846406B802149
:103C100008430D49486310480068012108430E49D4
:103C2000086008464068012108430B49486006487F
:103C3000406B20210843044948630848084908604C
:103C400008484860704700000024004000FAFF1F49
:103C50003FF8F8FF00000702001000405A5A3412E3
:103C600000140140070800000F20C002224908612B
:103C70000320C0028860002048602048C8600020FF
:103C8000C043C862C8130860C0111B4940310861B5
:103C90000020886048601A48C8600020C043C8629D
:103CA000002008600846806A002088620846006A92
:103CB0003021084310494031086212480E498031D2
:103CC00008618860081448600F48C8600020C0433D
:103CD000C862002008603C200749C0310861886044
:103CE000FF20813048600948C8600020C043C86296
:103CF0000020086070470000000C0040FFFF7F11AB
:103D000065FF5555E30200005555556555955665B7
:103D100021480078C007C00F00281ED01F48C06986
:103D20000121C9030840884210D01B4800780821AF
:103D30000840002803D04020174908702BE016489F
:103D40000078082108431449087024E012480078DC
:103D500008218843104908701DE01048C0690121FE
:103D6000C9030840884210D10B4800780821084058
:103D7000002803D08120084908700CE0064800782C
:103D8000082108430449087005E003480078082129
:103D9000884301490870704700000020000C004073
:103DA0007D200002074948618861084600690421B6
:103DB0000843044908610846006901210843014994
:103DC0000861704700E000E010B53C4880780028AA
:103DD00006D0012831D0022854D003286CD166E0E7
:103DE000FEF7E8FE364840690121C902084334491C
:103DF0004861084640694915084331494861084609
:103E00004069091508432E494861084680698915AB
:103E100008432B49886101202A490870FEF704F8FD
:103E2000012029490870887000202849086123482A
:103E30008078401C214988703EE024480069C728EA
:103E40001FD91F4880690121C90208431C498861A4
:103E50000846806949150843194988610846806900
:103E600009150843164988610846406989150843C1
:103E700013494861FDF73CFC10488078401C0F490D
:103E8000887019E011480069114988420ED9012053
:103E90001049887010498872887401210E482030BA
:103EA000417006488078401C0449887004E0002076
:103EB00002498870087000BF00BF10BD02000020DA
:103EC000400C0040000000200C00002020000020DA
:103ED000E70300000F0000208800002000200449B4
:103EE00008600120034948702020087070470000D6
:103EF000200000200000002010B52A4840788021D2
:103F00000840002816D0FDF7F3FB274880690121FF
:103F100089020843244988610020244908714871B6
:103F2000234988740120487400201E4948702149A3
:103F300048702DE0204800687D21C900884227D2C2
:103F400018484078C007C00F002821D000201A4927
:103F5000086015488069FF210131084312498861D2
:103F6000FEF728FE1248807C002803D1012010496A
:103F7000887402E000200E49887401200C494874BE
:103F800000200D4988611020064948700949487091
:103F900001200A490870002048700120014908707A
:103FA00010BD000000000020400C00401200002066
:103FB000D400002002000020200000205400002037
:103FC00030B47446641E2578641CAB4204D3635D30
:103FD0005B00E31830BC18471D46F8E74900CA02E9
:103FE0000243100000D004204A0D01D001221043EA
:103FF000044A490D914201D102210843012800D110
:1040000005207047FF070000F8B504464F1EC800A2
:104010000838211815461E46086849683A4606239E
:104020009A4310D02A463346FCF784FD3A46D20024
:10403000083AA3181A687F1E5B68FCF7D7FA0622B5
:104040003B469343EED1022F23D0042F11D0062FED
:104050002FD12A463346FCF76DFDE36AA26AFCF7CE
:10406000C5FA2A463346FCF765FD636A226AFCF707
:10407000BDFA2A463346FCF75DFDE369A269FCF709
:10408000B5FA2A463346FCF755FD63692269FCF709
:10409000ADFA2A463346FCF74DFDE368A268FCF70B
:1040A000A5FA2A463346FCF745FD63682268FCF70B
:1040B0009DFAF8BD002210B5134610460149FCF7E1
:1040C000C5FA10BD0000F03F10B5FCF78FFA10BD27
:1040D000002210B5134610461146FCF7B7FA10BD82
:1040E00010B50721024A00200907FCF7BBFF10BDED
:1040F00001030000034A10B500201107FCF7B2FFCE
:1041000010BD000001FDFFFFFDF782FAFFF758FD2B
:10411000FFF7AAFD012092498871FFF741FE1EE1D9
:1041200090484078C007C00F00280FD08E48006824
:104130007D21C900884209D300208C4908700120E4
:1041400088708B494871802086494870864840684D
:10415000132814D9002084494860FFF7D9FD81480D
:10416000007840210840002801D0FFF7B7FE7D48C5
:10417000007880210840002801D0FFF7BDFE794873
:1041800040781021084000280DD0774880693128F8
:1041900009D9002074498861FDF7AAFA0020714905
:1041A00048707449487074488078C007C00F002870
:1041B00001D0FFF75FF97148C07EC007C00F00282B
:1041C00001D0FFF7B7FB66488079C007C00F002811
:1041D00001D0FDF77FF8624820304078C007C00F5B
:1041E000002801D0FEF7D2FE65480078C007C00F56
:1041F000002801D0FEF70EFE6248407CC007C00FC9
:10420000002801D0FDF76EFE58488078C007C00F27
:10421000002801D0FEF74EF956480078C007C00FBD
:10422000002801D0FFF7D0FD51484079C007C00FEA
:10423000002801D0FEF712FD4D484078C007C00F9E
:10424000002801D0FEF764FD4948C078C007C00FC0
:10425000002801D0FEF790FB4B480078C007C00F44
:10426000002801D0FDF712FC3D48C07EC007C00FFA
:10427000002801D0FFF726FB4448008944498842C2
:1042800005DD00204149088101204249087041486C
:104290000078C007C00F002801D0FDF749FA0F20B1
:1042A0000003C0683C49884209D30F200003C0685E
:1042B000401C002803D0012033490871087037489A
:1042C0000078C007C00F002801D0FDF785FA3448F8
:1042D0000078C007C00F002801D0FEF797F93148D9
:1042E0000078C007C00F002801D0FDF75BFCFEF787
:1042F000CFFA204800781F49497840182149497C65
:1043000040181A49897840181549C97E411814483F
:1043100020304078081822490978401810498979D6
:1043200040181749097840181349897840180D49F1
:10433000497840180E49497840180D49C978401805
:10434000114909784018154989784018002801D189
:10435000FEF7E0FB144815490860FDF741F9DFE678
:104360008800002000000020200000200C00002019
:1043700012000020020000200F000020FC0000209E
:1043800028010020D4000020180000205400002044
:10439000BF2100000A000020420E0000050000209E
:1043A0001D000020180100205A5A34120014014048
:1043B000F0B51FB496B084460C460246199D189875
:1043C0000390490068006300490840080193002AEF
:1043D00001D0012600E000269E19FE4BF6185B1066
:1043E0009E422BD36E00039F0296002F00D0012720
:1043F000F719F84EF84BBE199E421FD3039E034691
:10440000F64F334309D03B469C4201D1002A04D0E9
:10441000019B002A05D0012604E0002039461BB08C
:10442000F0BD00269E19EE4B9E4207D8039F029EC8
:10443000002F00D00127F6199E4207D92B4660466F
:104440002146189AFFF740FE1BB0F0BD0023002C58
:1044500029DAE44EB04226DAE34EB04201DB022311
:1044600021E0DE4EB0421EDBE04E070DBE19142ED9
:1044700009DD3427BF1B039EFE400196BE40039F0B
:10448000BE420BD00FE0039F002F0CD11427BF1B9F
:104490000646FE400196BE40864204D1019BDE07DF
:1044A000F60F02239B1B0E46164318D1002D16DA79
:1044B000002C03D0022B01D0012B06D00220FCF7E8
:1044C00083FDFFF7F7FD1BB0F0BD0220FCF77CFD7C
:1044D000FFF7F0FD0122D20751401BB0F0BD039E53
:1044E000002E61D1BF4EB04220D1C148844201D1DB
:1044F000002A08D0B948814209DB002D10DB18984A
:1045000029461BB0F0BD0020B4491BB0F0BD002D02
:1045100006DA01222946D207189851401BB0F0BD97
:10452000B4497944086849681BB0F0BDAB4FB84244
:1045300025D1002D1FDA002904D0B14212D1002A62
:1045400009D018E0002A72D1A649E20F0020D20754
:1045500011431BB0F0BD0020E20F0146D20711430A
:104560001BB0F0BDB14206DA234600203946FCF705
:104570006DF81BB0F0BD104621461BB0F0BDB14236
:1045800012DA0126B607B54203D123461046194672
:10459000FEE3994EB54207D1261E05DB1046314693
:1045A00000F004FC1BB0F0BD67007F081646002A2F
:1045B00040D100290AD08B4A914229D1002C0EDD2E
:1045C000002D1CDB002011461BB0F0BD022B16D0C5
:1045D000002C14D0012B12D1002C14DB0FE0002C86
:1045E00028DA002D09DB012B03D000207D491BB008
:1045F000F0BD002081491BB0F0BD012B03D000208D
:1046000001461BB0F0BD00200121C9071BB0F0BD61
:10461000724A91420ED1002C01DA002B17D0022BE6
:1046200006D00020C043FCF77AFA1BB0F0BD90E240
:104630000120F8E7E217521C94461A4307D00022E3
:104640000892664C62465B1E1A4307D009E00120BF
:10465000FCF7BAFCFFF73CFD1BB0F0BD0022644C38
:104660000892674A90427DDD664B674A98421FDD9B
:10467000914202DC002D05DB4DE05848814217DBFA
:10468000002D48DD0220FCF79FFCFFF729FD0546C1
:104690000E460022534B21460898FCF74BFA084679
:1046A00071004908C00FC007014328461BB0F0BD88
:1046B000914215DA002D2EDA0220FCF785FCFFF777
:1046C0000FFD05460E460022464B21460898FCF792
:1046D00031FA72005208C80FC0070243114617E0B2
:1046E0003E4B994223DD002D15DD0220FCF76CFCCA
:1046F000FFF7F6FC05460E4600223A4B2146089885
:10470000FCF718FA084671004908C00FC0070143BA
:1047100028461BB0F0BD0220FCF756FCFFF7EAFC70
:1047200049004908E20FD20711431BB0F0BD002237
:1047300030463946FBF767FF012205460E46D24355
:10474000FCF790FC314A324BFBF768FF2A463346B0
:10475000FCF7F0F90022284BFBF760FF07462A46DA
:10476000334600E064E0039110461946FCF7E2F995
:104770003A46039BFCF7DEF90746032209915207EC
:10478000244B28463146FCF7D5F907910C90224A74
:10479000204B38460999FCF7CDF9074601911F4A8D
:1047A0001F4B28463146FCF7C5F93A46019BFBF7FB
:1047B0002AFF07460B460246099107990C98FBF71A
:1047C00015FF00250E462846079B0C9AFBF71BFF9A
:1047D0003A4627E0FFFF1F00FFFF0F000000F03FF9
:1047E0000000E0FF0000F07F0000404301FCFFFFFD
:1047F0000000F0BF420D00000000E03F0000F0FFAD
:104800000000E0410000F043FFFFEF3F55555555D4
:104810005555D53F4715F73FFE822B6544DF5DF8C0
:104820000BAE543E099BFBF7F9FE02460B4652E1E4
:10483000012500202D05A94207DA352230463946E8
:10484000FCF710FC06463420C0430A151218FE4837
:10485000101803900803FD49000B01430F46FC4963
:10486000884201DC002003E0FA49884202DA012094
:10487000119005E0002011900398401C7F1B0390CD
:1048800011980597C200F4480F9278448018436845
:104890000268394630460D930292FBF7B4FE079149
:1048A0000C9030460D9B029A0599FBF79FFE02463D
:1048B0000B460020E549FBF7C9FE09910490079BD0
:1048C0000C9AFCF737F9129000201090E3480D463F
:1048D000784400680E900121781049070843119927
:1048E0000D9B890440180121C90447183946029AD2
:1048F0000E98FBF788FE3246059BFBF78FFE0246BB
:104900000B4629461098FCF715F9064602913B46DE
:1049100029460E9A1098FCF70DF9079B0C9AFBF7A5
:104920007DFE3246029BFBF76EFE099B049AFCF764
:1049300001F90591129A0A902B4610461946FCF788
:10494000F9F806460246C6480F460B46062178444B
:10495000FFF75AFB32463B46009104901046194639
:10496000FCF7E8F8009B049AFCF7E4F806460F46CB
:104970002B461946129A1098FBF738FE059B0A9AA7
:10498000FCF7D8F832463B46FBF730FE109A079109
:1049900004902B4610461946FCF7CCF8B14E002285
:1049A000334609910290FBF721FE079B049AFBF71F
:1049B0001DFE00200746024633460091FBF723FE0A
:1049C000099B029AFBF71FFE079B049AFBF726FE42
:1049D00006460D913A462946009B1098FCF7AAF826
:1049E00007910C902B463046129A0D99FCF7A2F8CD
:1049F00005460E463A46009B05990A98FCF79AF838
:104A000033462A46FBF7F2FD02460B46074609915C
:104A100007990C98FBF7EAFD00250E462846079BF0
:104A20000C9AFBF7F0FD3A46099BFBF7F7FD0746AA
:104A30000722099152078C4B31462846FCF77AF839
:104A400007910090894A884B38460999FCF772F81B
:104A500007460191864A874B31462846FCF76AF89B
:104A60003A46019BFBF7C2FD834B7B440F9A9B1890
:104A70001A685B68FBF7BAFD029009910398FCF78E
:104A80004EF805910490099B029A07990098FBF74C
:104A9000ADFD7A4B7B440F9A9B181A685B681746EA
:104AA0000393FBF7A3FD059B049AFBF79FFD0E46BE
:104AB0002846059B049AFBF7A6FD3A46039BFBF7A5
:104AC000A2FD079B009AFBF79EFD099B029AFBF74C
:104AD000A5FD02460B46199900200C900F46189828
:104AE000FCF728F8029104903B460C9A1999189803
:104AF000FBF789FD2A463346FCF71CF8029B049A13
:104B0000FBF774FD09910E902A46334639460C98FE
:104B1000FCF710F806460F46099B0E9AFBF766FD58
:104B2000574A0D46914220DB5242AA18024310D147
:104B300032463B46FBF767FD04900391514A524BC6
:104B400009990E98FBF752FD039B049A00F084F933
:104B50001ED20220FCF738FAFFF7C2FA49004908D2
:104B6000E20FD20711431BB0F0BD6A00474B520859
:104B70009A420DD3464AAA18024300D0CBE53246EA
:104B80003B46FBF740FD099B0E9A00F065F9F5D90D
:104B90006800002340082C490393020D3D4B521836
:104BA000984223DD01200005521CD04042195000DC
:104BB000400D401838497944096813468C463749F6
:104BC000C1408B4312030121120B09055118142215
:104BD000101AC1400391002D01DA48420390624649
:104BE00030463946FBF70FFD06460F4632463B4638
:104BF00009990E98FBF7FAFC00252A46284B28460F
:104C00000591FBF797FF07910C90264A264B284603
:104C10000599FBF78FFF0091029032463B462846EC
:104C20000599FBF7F0FC099B0E9AFBF7F7FC1F4A6E
:104C30001F4BFBF77FFF009B029AFBF7D7FC074651
:104C40000B460246099135E001FCFFFF0000F03FF2
:104C50008E9803007AB60B005209000094090000F8
:104C6000BE0800000000084009C7EE3FFD033ADC23
:104C7000F5015B14E02F3EBE9207000058070000CC
:104C800000009040FE822B654715973C00CC904079
:104C900000346F3F0000E03FAE060000FFFF0F0052
:104CA000432EE63F396CA80C615C20BEEF39FAFE5A
:104CB000422EE63F07990C98FBF798FC05460E46F6
:104CC000079B0C9AFBF79FFC3A46099BFBF7A6FC57
:104CD00009912A4633460E9010461946FBF72AFFE3
:104CE000074602462F480B46059105217844FFF7F9
:104CF0008BF93A46059BFBF71DFF2A463346FBF727
:104D00008DFC0746019128463146099B0E9AFBF718
:104D100011FF099B0E9AFBF769FC012304910C908B
:104D200000229B0738460199FBF76DFC05910E9018
:104D30003A4628463146019BFBF7FCFE059B0E9A3E
:104D4000FBF784FC049B0C9AFBF75DFC2A46334678
:104D5000FBF759FC0022144BFBF760FC0646039856
:104D60000D46000541190915002912DC3046294677
:104D7000039AFCF777F9FFF731F9042801D1FFF71F
:104D8000B9F930462946039AFCF76CF9064601E06A
:104D900004E029180B46324621460898FBF7CAFE64
:104DA0001BB0F0BD500500000000F03FF8B506460E
:104DB0000C46FCF7ADF9051E0F4600D0012001435B
:104DC00049000B484908411AC90F0DD0002E01D0E7
:104DD000012100E000210C4361004908401AC00F86
:104DE00002D10120FCF7F0F828463946F8BD000052
:104DF0000000F07F70B501250C002D051C4310D478
:104E0000EC4206D4AC420AD4994200D070BD904224
:104E100070BDE94217D4EB4215D4994270BD894266
:104E200070BDEC4206D5AC42F9D58B4200D070BDC6
:104E3000824270BD6D004C00EC4204D25C00EC423A
:104E400001D28B4270BD034C30B4FCF7C3F830BCC8
:104E500070BD00BF1900160470B501251C002D059A
:104E60000C4310D4EC4206D4AC420AD48B4200D09E
:104E700070BD824270BDEB4217D4E94215D48B421B
:104E800070BD9B4270BDEC4206D5AC42F9D599424B
:104E900000D070BD904270BD6D005C00EC4204D249
:104EA0004C00EC4201D2994270BD0FB4034C0CBCD3
:104EB00003BC30B4FCF78EF830BC70BD190016048A
:104EC00070B501250400ED074C4020D4441A01D2EE
:104ED000001B0919C60D4B00F2B2FF2A29D01B0E88
:104EE0002CD000020C02D31A2C43DC4028430519B5
:104EF00010D2280A02D3401C6D0611D0761EF6058A
:104F00008019FF2A00DA70BDC00DC00570BD694070
:104F100000F07AF801200543C541521C761CE8E7F1
:104F200064089C40C90161408900E7D10124A04385
:104F3000E4E71B0E440200D0034870BD002AFCD1F8
:104F4000C00FC00770BD00BF0000C07F70B5420039
:104F500064414B005C41120E39D01B0E38D0FF2A41
:104F60003CD0FF2B3AD040024902400A490A0600D1
:104F700045184E43000A090AD2184843ED017F3A0A
:104F80000104731A4019190C4318990F04D0012118
:104F90005B0849075B1A521CD80904D3401CF5036F
:104FA00001D19D0607D0FF2A08D2D50506D0E40717
:104FB0002043401970BD0125A843F4E7002A01DC15
:104FC000E00770BD2402FF202043C00570BD1B0E0A
:104FD000FF2A03D0FF2B01D0E00770BDFF2645005C
:104FE0003606B54206D84D00B54203D8D218FF2A7E
:104FF00000D0E7E7004870BD0000C07F70B5012514
:105000000400ED074C4022D4441A02D26C40001B2D
:105010000919C60D4B00F2B2FF2A4BD01B0E50D01F
:1050200000020C02D31A2C43DC40A843051B05D513
:10503000AD0019D36D08761E521E37D0F605280A2A
:1050400001D2801970BD70416D0603D070BD6940FA
:10505000FFF73CFF9C4009026140490001D0401E1F
:1050600070BD0124A04370BD6D081DD001202B0C24
:1050700001D12D0410302B0E01D12D0208302B0F41
:1050800001D12D01001DAB0F01D1AD00801CEB0F34
:1050900001D16D00401C6D00361A121A680AF50520
:1050A0004019012A02DB70BD002070BDC036300AF5
:1050B000C00770BD1B0E440201D1FF2B00D1024876
:1050C00070BD002AF0D070BD0000C07F040602064B
:1050D00000020200040406020402060200020604A2
:1050E0000402040604060406000202020406060680
:1050F000040206060404040600060206000004007A
:10510000010000000000010000000001000100009B
:1051100002000000020000000800000080807F7E86
:105120007D7C7B7A7978777676757473727171701D
:105130006F6E6E6D6C6C6B6A6A69686867666665CF
:105140006464636362616160605F5F5E5E5D5D5C5D
:105150005C5B5B5A5A5959585857575656555555CE
:105160005454535352525251515050504F4F4F4E2E
:105170004E4D4D4D4C4C4C4B4B4B4A4A4A4949497C
:1051800048484847474747464646454545444444BE
:1051900044434343434242424241414181828384EA
:1051A00085868788898B8C8D8E8F91929395969723
:1051B000999A9C9D9FA0A2A3A5A7A8AAACAEB0B2A5
:1051C000B3B5B7B9BCBEC0C2C5C7C9CCCED1D4D7A0
:1051D000D9DCDFE2E6E9ECF0F3F7FAFE00000000CC
:1051E000000000000000F03F000000000000F83F59
:1051F00000000000000000000000004003B8E23F93
:10520000000000000000000006D0CF43EBFD4C3E44
:10521000033333333333E33FFFAB6FDBB66DDB3F39
:105220004D268F515555D53F01411DA96074D13F81
:1052300065DBC9934A86CD3FEF4E454A287ECA3F7B
:105240003E5555555555C53F93BDBE166CC166BFFD
:105250002CDE25AF6A56113FF16BD2C541BDBBBEF6
:10526000D0A4BE726937663E000000000000000056
:105270009052000000000020200000000401000007
:10528000B05200002000002090110000200100001A
:10529000000000000000000000000000000000000E
:1052A00000000000000000000000000000000000FE
:04000005000000C136
:00000001FF
